:40000000023DB3008F828E83E0540100000070F82278FFE4F6D8FD023E11C0E0C0F0C083C082C085C084C086758600C093759300C0D075D000C000C001C002C003C004C01D
:4000400005C006C007A2AFE43390066FF0E4FFFEFDFCA3120F0BD2AF9044F474FDF01255BF8E1A8F1B854B1C854A4B054A854E46300303125025300436E54E6547602E853F
:40008000474EE4FDAF471223DEE54764046005E547B4010D90589A7402F0A3F0A3E4F0A3F07C007D1A7F1D1248AF12543CC204E54BC3954F400302013BAF4B1253E5AF4B9F
:4000C00074902FF582E43405F583E064017036AF4B1253C4E54E64016023754E01E4FD7F011223DE90589A7402F0A3F0A3E4F0A3F07C007D1A7F1D1248AF12543C854E4767
:40010000D2040203927F251253C4E54E64046023754E04E4FD7F041223DE90589A7402F0A3F0A3E4F0A3F07C007D1A7F1D1248AF12543C854E47D204020392E54BB54F0986
:400140007553001247A6020392E54BB5540612492E020392E54BD3954F400EE54B9554500805531247A6020392E54BF4600302039285454AE54D120F4101950001A501012A
:40018000E90202340302820402B90802FD0903470A0000039212543C12492E854E46D202C201020392854E47E54E64016023754E01E4FD7F011223DE90589A7402F0A3F085
:4001C000A3E4F0A3F07C007D1A7F1D1248AF12543CD204124FE9905B037444F07E007F0D75510075520D020392854E47E54E64016023754E01E4FD7F011223DE90589A7447
:4002000002F0A3F0A3E4F0A3F07C007D1A7F1D1248AF12543CD204124FE9905B037424F0905895E04410F07E007F00755100755200020392854E47E54E64016023754E0184
:40024000E4FD7F011223DE90589A7402F0A3F0A3E4F0A3F07C007D1A7F1D1248AF12543CD204124FE9905B037404F0905B067402F0905A0AF07E007F0975510075520902DC
:400280000392854E47E54E64026016754E02E4FD7F021223DE7C007D1A7F1D1248AF12543CD204124FE9905B037444F07E007F0F75510075520F020392854E47E54E640442
:4002C0006023754E04E4FD7F041223DE90589A7402F0A3F0A3E4F0A3F07C007D1A7F1D1248AF12543CD204124FE9905B037444F07E007FB97551007552B9020392854E47FB
:40030000E54E64046023754E04E4FD7F041223DE90589A7402F0A3F0A3E4F0A3F07C007D1A7F1D1248AF12543CD204124FE9905B037424F0905895E04410F07E007F0275D7
:400340005100755202804B854E47E54E64046023754E04E4FD7F041223DE90589A7402F0A3F0A3E4F0A3F07C007D1A7F1D1248AF12543CD204124FE9905B037404F0905BE2
:40038000067402F0905A0AF07E007F0B75510075520B125783E51CF4700302054CE546B40227E51CC39554500BC3E4951BF51BE4951AF51A9005F6E0FEA3E0FFC3E51B9F40
:4003C000F51BE51A9EF51A802DE546B401159005F0E0FEA3E0FFC3E51B9FF51BE51A9EF51A80139005F8E0FEA3E0FFC3E51B9FF51BE51A9EF51AE51CC3940C4003020560F0
:40040000751500E51525E0243BF582E43401AF82F5168F177518027519F7E51CC3954F5055E51C75F005A424F7F582E43402AF82F5188F19F583E0F515E51CC43354E024AE
:400440003BF582E43401F58375F002E515120F17AF828583168F17E515C3940F500AE5152401FFE433FE80047E007F00851982851883EFF08063E51CC3954F405CE51C9561
:40048000545056C3E51C954FFF75F005A4243BF582E43402AD82F5188D19F583E0F515EFC43354E024BBF582E43400F58375F002E515120F17AF828583168F17E515C3947A
:4004C0000F500AE5152401FFE433FE80047E007F00851982851883EFF0851982851883A3120EE3900670120F0B900670120EE3C006C007851782851683E0FEA3E0FFFBAAD1
:4005000006EA3395E0F9F8D007D006120D50900670120F0B900670120EFFAE1AAF1BEE3395E0FDFC120D43900670120F0B900670120EE3851982851883A3120F0B851782D4
:40054000851683E51AF0A3E51BF0801420020F855282855183E51AF0A3E51BF08002C20220000302086BE51CC3955440030208462006030206D8E51CC3954F400302065078
:40058000E47F01FEFDFCA91CA801120ED0EF553AFFEE5539FEED5538FDEC5537FC4D4E4F70030206D8E52130E04CE51C75F015A42450F582E43402F583120EE3900670124A
:4005C0000EFFD3120E96402E433201E47F01FEFDFCA91CA801120ED0E5364FFFE5354EFEE5344DFDE5334C8F368E358D34F533906471E04401F0E52120E1030206D8E51C5C
:4006000075F015A42454F582E43402F583120EE3900670120EFFC3120E9640030206D8433202E47F01FEFDFCA91CA801120ED0E53E4FFFE53D4EFEE53C4DFDE53B4C8F3EA4
:400640008E3D8D3CF53B906471E04401F00206D8C3E51C954FF51D24CAF582E43404F583E0F51DE47F01FEFDFCE51D14F9F8120ED0EF553AFFEE5539FEED5538FDEC55377F
:40068000FC4D4E4F6052E52130E24DE51D75F015A42443F582E43402F583120EE3900670120EFFD3120E96402F433204E47F01FEFDFCE51D14F9F8120ED0E5314FFFE53049
:4006C0004EFEE52F4DFDE52E4C8F318E308D2FF52E906471E04401F0200503020846E51CC3954F40030207BCE47F01FEFDFCA91CA801120ED0EF5529FFEE5528FEED5527FB
:40070000FDEC5526FC4D4E4F7003020846E53F30E04EE51C75F015A42412F582E43400F583120EE3900670120EFFD3120E964030434401E47F01FEFDFCA91CA801120ED06C
:40074000E5254FFFE5244EFEE5234DFDE5224C8F258E248D23F522906471E04402F0D201E53F20E103020846E51C75F015A42416F582E43400F583120EE3900670120EFFAC
:40078000C3120E964003020846434402E47F01FEFDFCA91CA801120ED0E52D4FFFE52C4EFEE52B4DFDE52A4C8F2D8E2C8D2BF52A906471E04402F0D201020846C3E51C9535
:4007C0004FF51D24CAF582E43404F583E0F51DE47F01FEFDFCE51D14F9F8120ED0EF5529FFEE5528FEED5527FDEC5526FC4D4E4F6054E53F30E24FE51D75F015A42405F55C
:4008000082E43400F583120EE3900670120EFFD3120E964031434404E47F01FEFDFCE51D14F9F8120ED0E5434FFFE5424EFEE5414DFDE5404C8F438E428D41F540906471D3
:40084000E04402F0D201E51CB40B05300102C201AF4CEF24FFFFE434FFFEEF651C7001EE7030906471E06404F08027AF4CEF24FFFFE434FFFE7C00EFB51C17ECB50613E5ED
:40088000496002154990056FE0B40106E5497002D20090066FE024FF92AFD007D006D005D004D003D002D001D000D0D0D093D086D084D085D082D083D0F0D0E032020C8F53
:4008C000E86480F8E933E83360110460F0ED33EC337009E8FCE9FDEAFEEBFF220460DED3EB9FEA9EE99DE8C2E78CF0C2F795F0400CE8CCF8E9CDF9EACEFAEBCFFB120C5A44
:4009000085D0F05804700320D5B3E80470075002B2D5020C9992D5EC0460F7E4CCC0E0C398F8603B94186008400DD0E0FB020C71E4FBFAC9FC8028E830E406E4C9FBE4CA03
:40094000FCE830E305E4C9CACBFCE854076010F8C3E913F9EA13FAEB13FBEC13FCD8F130F52FC3E49CFCEF9BFFEE9AFEED99FDD0E0FBEF4E4D4C701222DB03020C96EC2C42
:40098000FCEF33FFEE33FEED33FDED30E7EB020C71EF2BFFEE3AFEED39FDD0E0FB50130BBB0003020C99ED13FDEE13FEEF13FFEC13FC020C71EC4D6011E8497017ED33ECAB
:4009C0003304600DE4FCFFFEFD22E933E8330470F8020C8F120C5A58046009E4CC24815006285009020C99284003020C96C0E0EB4A7044B98006D0E0FB020C85EF4E701C29
:400A0000BD8008EBFFEAFEE9FD80EBE98DF0A4FEE5F0020A9EE9CDF9EAFEEBFFEF89F0A4FCE5F0CE89F0A42EFFE435F0CD89F0A42DFEE435F08067EF4E7005BD80D780C33A
:400A4000EF8BF0A4ACF0EE8BF0A42CFCE435F0F8EF8AF0A42CE5F038FCE433CB8DF0A42CFCE5F03BF8EE8AF0A42CFCE5F038F8E433CF89F0A42CFCE5F038CF3400CE89F066
:400A8000A42FFFE5F03EFEE433C98DF0A42EFEE5F039CD8AF0A42FFFE5F03EFEE43DFD33D0E0FB50070BBB000F020C99EC2CFCEF33FFEE33FEED33FD020C71020C99EC5D3F
:400AC000046005E859047003020C8F120C5A580460F6EC4860F2EC7004FDFEFF22C860DB2481C85009C39860025006020C969850CAF582E9294B4A7005AB82020C8575F022
:400B0000007C1A7880C3EF9BEE9AED99400DC3EF9BFFEE9AFEED99FDE842F0DC23ACF0D0E0FFD0E0FED0E0FDAB8220E7101BEB60BAEC2CFCEF33FFEE33FEED33FD020C7117
:400B4000E803F830E705C0F075F000EF2FFFEE33FEED33FD40B830E7C280AA74F8CC6480CCC86480C8F58204604FC3EB9FF5F0EA9E42F0E99D42F0E89C45F0603C501DE53C
:400B8000825FFFE582D313CB5BCBF42B5582FB50280ABA002409B9002008801DE5825BFBE582D313CF5FCFF4C3132F5582FF50090EBE00050DBD00010CC3EB9FF5F0EA9EAE
:400BC00042F0E99D42F0E89C45F06007CC4820E701B3EC22ED33EC33600A047003BD8004ECB2E7FC2275F020800E75F010800575F0087D007E007F003392D530D503120E54
:400C000088EC334010EF33FFEE33FEED33FDEC33FCD5F0ED22E5F0247EA2D513CC92E7CDCEFF22EDD2E7CD33EC3392D524814006E4FFFEFDFC22FCE4CFCECDCC24E05011E1
:400C400074FF80EDC3CC13CCCD13CDCE13CECF13CF0470F030D5DE020E88E9D2E7C933E833F892D5EDD2E7CD33EC33FC5002B2D522EC30E7100FBF000C0EBE00080DBD00DB
:400C8000040BEB6014A2D5EB13FCED92E7FD2274FFFCFDFEFF22E480F8A2D574FF13FC7D80E480EFBB010689828A83E0225002E722BBFE02E32289828A83E49322BB010636
:400CC00089828A83F0225002F722BBFE01F322EF8DF0A4A8F0CF8CF0A428CE8DF0A42EFE22C2D5EC30E709B2D5E4C39DFDE49CFCEE30E715B2D5E4C39FFFE49EFE1210A77E
:400D0000C3E49DFDE49CFC80031210A730D507C3E49FFFE49EFE22C5F0F8A3E028F0C5F0F8E582158270021583E038F022A3F8E0C5F025F0F0E582158270021583E0C83873
:400D4000F0E822EF2BFFEE3AFEED39FDEC38FC22C3EF9BFFEE9AFEED99FDEC98FC22E88FF0A4CC8BF0A42CFCE98EF0A42CFC8AF0EDA42CFCEA8EF0A4CDA8F08BF0A42DCCD1
:400D80003825F0FDE98FF0A42CCD35F0FCEB8EF0A4FEA9F0EB8FF0A4CFC5F02ECD39FEE43CFCEAA42DCE35F0FDE43CFC2275F008758200EF2FFFEE33FECD33CDCC33CCC559
:400DC0008233C5829BED9AEC99E58298400CF582EE9BFEED9AFDEC99FC0FD5F0D6E4CEFBE4CDFAE4CCF9A88222B800C1B90059BA002DEC8BF084CFCECDFCE5F0CBF978181F
:400E0000EF2FFFEE33FEED33FDEC33FCEB33FB10D703994004EB99FB0FD8E5E4F9FA227818EF2FFFEE33FEED33FDEC33FCC933C910D7059BE99A4007EC9BFCE99AF90FD81A
:400E4000E0E4C9FAE4CCFB2275F010EF2FFFEE33FEED33FDCC33CCC833C810D7079BEC9AE899400AED9BFDEC9AFCE899F80FD5F0DAE4CDFBE4CCFAE4C8F922EF4BFFEE4A2C
:400E8000FEED49FDEC48FC22C3E49FFFE49EFEE49DFDE49CFC22EB9FF5F0EA9E42F0E99D42F0EC6480C864809845F022EB9FF5F0EA9E42F0E99D42F0E89C45F022E8600F6F
:400EC000ECC313FCED13FDEE13FEEF13FFD8F122E8600FEFC333FFEE33FEED33FDEC33FCD8F122E0FCA3E0FDA3E0FEA3E0FF22E493FC740193FD740293FE740393FF22E0C4
:400F0000F8A3E0F9A3E0FAA3E0FB22ECF0A3EDF0A3EEF0A3EFF022A42582F582E5F03583F58322E0FBA3E0FAA3E0F922EBF0A3EAF0A3E9F022E493FB740193FA740293F954
:400F400022D083D082F8E4937012740193700DA3A393F8740193F5828883E4737402936860EFA3A3A380DFE51F2582F582E51E3583F583B51E0485821F2210AF0685821F1B
:400F8000F51E2285821FF51ED2AF22E51F2582F582E51E3583F58322EC8EF0A4CCC5F0CCCDF8EFA4CEC5F02DFDE43CFCE8A42EC8C5F03DFDE43CFCEFA4FFE5F028FEE43DF2
:400FC000FDE43CFC22E709F608DFFA8046E709F208DFFA803E88828C83E709F0A3DFFA8032E309F608DFFA806EE309F208DFFA806688828C83E309F0A3DFFA805A89828A4B
:4010000083E0A3F608DFFA804E89828A83E0A3F208DFFA804280D280FA80C680D4805580F28029801080A680EA809A80A880DA80E280CA802988848C8589828A83E493A31F
:401040000586F0A30586DFF5DEF3800B89828A83E493A3F608DFF9ECFAA9F0EDFB2288848C8589828A83E0A30586F0A30586DFF6DEF480E389828A83E493A3F208DFF98017
:40108000D688F0EF60010E4E60CD88F0ED2402B4040050C3F582EB2402B4040050B9232345822390101573BC000BBE0029EF8DF084FFADF022E4CCF875F008EF2FFFEE3363
:4010C000FEEC33FCEE9DEC984005FCEE9DFE0FD5F0E9E4CEFD22EDF8F5F0EE8420D21CFEADF075F008EF2FFFED33FD4007985006D5F0F222C398FD0FD5F0EA2290FFFF12FE
:401100000F67EFF090FFFA120F679044CB7420F0854A45754AFF9005B8E0F54D9044C37420F0E54AF460FBE54BF460F69005B8E0120F41115501117A021209031294041275
:40114000B905133606140B0714300814550914E40A0000156C7A057BA090000DE0FCA3E0FD900006120F8BE0FF12386C120C239005F0EEF0A3EFF002156C7A057BF290006C
:4011800000E0FCA3E0FD900006120F8BE0FF12386C120C23851E83851F82EEF0A3EFF0851E83851F82E0FEA3E0FFC3E49FFFE49E851E83851F82F0A3EFF0851E83851F8292
:4011C000C083C082E0FEA3E0FF9005F0E0FCA3E0FDC3EF9DFFEE9CD082D083F0A3EFF0851E83851F82E0FCA3E0FDEC120BEAA804A905AA06AB07E4FFFE7D807C44120ABE6B
:401200009005BA120F0B02156C7A057BAC900009E0FCA3E0FD900006120F8BE0FF12386C120C23851E83851F82EEF0A3EFF0851E83851F82E0FEA3E0FFC3E49FFFE49E8559
:401240001E83851F82F0A3EFF0851E83851F82C083C082E0FEA3E0FF9005F0E0FCA3E0FDC3EF9DFFEE9CD082D083F0A3EFF0851E83851F82E0FCA3E0FDEC120BEA9005BA4A
:40128000120EFF1209B5120C239005B0EEF0A3EFF002156C7A057BA490000FE0FCA3E0FD900006120F8BE0FF12386C120C239005F6EEF0A3EFF002156C9005B9E0FF25E085
:4012C00024C6F582E43405F583E0FCA3E0FDC39005EFE09DF09005EEE09CF090031FE0FCA3E0FD9005EEEC8DF0120D1790031FE0FCA3E0FDEF25E024C6F582E43405F583D1
:40130000ECF0A3EDF09005B9E004F0C39410500302156C9005EEE0FEA3E0FF7C007D04120CE1EE3395E0FDFC9005E6120F0BE49005B9F002156C9005E6120EE3EC120BE5CC
:40134000E4FBFA79807840120ABE9005FE120F0B9005FE120EE3C004C005C006C0079005F8E0FCA3E0FDEC120BEAA804A905AA06AB07D007D006D005D0041208C09005FE43
:40138000120F0B9005FE120EE39005C2120EFF1209B59005FE120F0B7A057BEA900321E0FCA3E0FD900006120F8BE0FF12386C120C23851E83851F82EEF0A3EFF0851E8388
:4013C000851F82C083C082E0FEA3E0FF9005F6E0FCA3E0FDC3EF9DFFEE9CD082D083F0A3EFF0851E83851F82E0FCA3E0FDEC120BEAA804A905AA06AB079005FE120EE3120D
:401400000ABE9005BE120F0B02156CE4FFFEFD7C3D851E83851F82A3A3120F0B851E83851F82A3A3120EE39005BE120F0B02156C7A057BA89000B9E0FCA3E0FD9000061207
:401440000F8BE0FF12386C120C239005F8EEF0A3EFF002156C7A057BFA900002E0FCA3E0FD900006120F8BE0FF12386C120C23851E83851F82EEF0A3EFF0851E83851F829A
:40148000E0FEA3E0FFC3E49FFFE49E851E83851F82F0A3EFF0851E83851F82C083C082E0FEA3E0FF9005F8E0FCA3E0FDC3EF9DFFEE9CD082D083F0A3EFF0851E83851F82F2
:4014C000E0FCA3E0FDEC120BEAA804A905AA06AB07E4FFFE7D807C44120ABE9005C2120F0B02156C7A057BB290000BE0FCA3E0FD900006120F8BE0FF12386C120C23851E05
:4015000083851F82EEF0A3EFF0851E83851F82E0FEA3E0FFC3E49FFFE49E851E83851F82F0A3EFF0851E83851F82C083C082E0FEA3E0FF9005F8E0FCA3E0FDC3EF9DFFEE1B
:401540009CD082D083F0A3EFF0851E83851F82E0FCA3E0FDEC120BEA9005C2120EFF1209B5120C239005B6EEF0A3EFF0900007120F6722C0E0C0F0C083C082C085C084C08C
:4015800086758600C093759300C0D075D000C000C001C002C003C004C005C006C0079003FEE05410F0A3E4F07F011241139006E2EEF0A3EFF012482B90040FEEF0A3EFF0DC
:4015C00090039BE0FEA3E0FF124B029006E4EEF0A3EFF01257FBEF54019006D6F0B4012A9006E4E0FEA3E0FFC39006E3E09F9006E2E09E50159006D67401F01257FB900686
:40160000D6E0F4547F5FFF1257F590038DE0FEA3E0FF124B029006E4EEF0A3EFF09006D6E070299006E4E0FEA3E0FFD39006E3E09F9006E2E09E40149006D67401F01257AA
:40164000FB9006D6E0547F4FFF1257F5E4FF122F5D9006E4EEF0A3EFF0B4201AEEB480169006D67401F0F4547FF01257FB9006D6E05FFF1257F57F031241139006E2EEF0F1
:40168000A3EFF012482B900401EEF0A3EFF0E4FF1230D97F03123F799006D2120F0B9006D2120EE312325590041DEEF0A3EFF0E4FF123CC07F021241139006E2EEF0A3EF7B
:4016C000F012482B900411EEF0A3EFF07F011230D97F02123F799006D2120F0B9006D2120EE312325590041FEEF0A3EFF07F01123CC07F041241139006E2EEF0A3EFF0127E
:40170000482B900405EEF0A3EFF07F021230D97F04123F799006D2120F0B9006D2120EE3123255900421EEF0A3EFF07F02123CC09003BBE0FEA3E0FF123A9E9006DC120FED
:401740000B9006DC120EE39006D2120EFF120B5B601840169006D67402F01257FB9006D6E0547F4FFF1257F580159006D67402F01257FB9006D6E0F4547F5FFF1257F57F02
:40178000051241139006E2EEF0A3EFF012482B900415EEF0A3EFF07F03122F5D7F05123F799006D2120F0B9006D2120EE3123255900423EEF0A3EFF07F03123CC07F061214
:4017C00041139006E2EEF0A3EFF012482B900417EEF0A3EFF0900395E0FEA3E0FF124B029006E4EEF0A3EFF0900717E07002A3E0602D9006E4E0FEA3E0FFC39006E3E09FC7
:401800009006E2E09E5018900717E4F0A3F09003FEE04480F0A3E04401F090647EE4F09003A3E0FEA3E0FF124B029006E4EEF0A3EFF0C39006E3E09F9006E2E09E501190A1
:4018400003FEE04480F0A3E04401F090647EE4F07F081241139006E2EEF0A3EFF012482B90041BEEF0A3EFF07F06122F5D7F071241139006E2EEF0A3EFF012482B90041963
:40188000EEF0A3EFF07F05122F5D1257FBEF6480547FFF1257F5D007D006D005D004D003D002D001D000D0D0D093D086D084D085D082D083D0F0D0E032E490064BF0A3F012
:4018C000A3F0D2AF9044F474FDF0E4900400F09003FEF0A3F0125674125599124C4112580190064DEFF090064DE0540360F87F101257F5125666125573125639125586E40E
:4019000090064BF090064BE0C394075052E4A3F090064CE0C39410503EE0FF90064BE0FEC454F024D4F582E4345CF583E5822FF582E43583F583E493FD75F011EE90042C2D
:40194000120F17E5822FF582E43583F583EDF090064CE004F080B990064BE004F080A5E490064BF090064BE0FFC394075030EF25E0242CF582E4345CF583E493FE740193F1
:40198000FF12482B90064BE075F002900371120F17EEF0A3EFF090064BE004F080C6E490064BF090064BE0FFC394075030EF25E0243AF582E4345CF583E493FE740193FF60
:4019C00012482B90064BE075F00290037F120F17EEF0A3EFF090064BE004F080C6E490064BF090064BE0FFC394075030EF25E02448F582E4345CF583E493FE740193FF12F1
:401A0000482B90064BE075F00290038D120F17EEF0A3EFF090064BE004F080C6E490064BF090064BE0FFC394075030EF25E02456F582E4345CF583E493FE740193FF12485E
:401A40002B90064BE075F00290039B120F17EEF0A3EFF090064BE004F080C6E490064BF090064BE0FFC39407502EEF25E025E02464F582E4345CF583120EEF1232559006DF
:401A80004BE075F0029003A9120F17EEF0A3EFF090064BE004F080C8E490064BF090064BE0FFC39407502EEF25E025E02480F582E4345CF583120EEF12325590064BE07594
:401AC000F0029003B7120F17EEF0A3EFF090064BE004F080C8E490064BF090064BE0FFC394075030EF25E0249CF582E4345CF583E493FE740193FF12482B90064BE075F084
:401B0000029003C5120F17EEF0A3EFF090064BE004F080C6E490064BF090064BE0FFC394075030EF25E024AAF582E4345CF583E493FE740193FF12482B90064BE075F00217
:401B40009003D3120F17EEF0A3EFF090064BE004F080C6E490064BF090064BE0FFC394075030EF25E024B8F582E4345CF583E493FE740193FF12482B90064BE075F002902D
:401B800003E1120F17EEF0A3EFF090064BE004F080C6E490064BF090064BE0FFC394075030EF25E024C6F582E4345CF583E493FE740193FF12482B90064BE075F00290035E
:401BC000EF120F17EEF0A3EFF090064BE004F080C690042B7422F012556012554D1255AC80FE22900680EFF0E49006F4F09006FCE0703F9058967407F0A3E4F090589EF0A6
:401C0000905B07E04418F0905893E4F0905B88F0A3F0905880740AF0A3E4F0A3747AF0A3E4F090588DF0904E017414F0904E147401F0900680E064016003021CD2904E005D
:401C40007430F0904E027406F0A37409F0A3E4F0A3F0A3741FF0904E08E4F0A3F0A3F09058847414F0A3740BF0A37419F0A3E4F0A37412F0A304F0A37444F0A37448F0A3EC
:401C80007402F090588E14F0A37411F0A37419F0A37497F07F441253389058947458F0A3E4F090589A04F0A3F0A3F0A3740AF0E47FE87E03FDFC9006F7120F0B7D077F1D14
:401CC0001250617C587D327F1D1248AF9044C37420F0900680E064026003021D72904E007430F0904E027406F0A37409F0A3E4F0A3F0A3741FF0904E08E4F0A3F0A3F09022
:401D000058847414F0A37439F0A37404F0A3E4F0A37412F0A304F0A37444F0A37442F0A37410F090588E7401F0A37411F0A37419F0A37497F07F441253389058947458F0E9
:401D4000A3E4F090589A04F0A3F0A3F0A3740AF0E4FF7E7DFDFC9006F7120F0B7D077F1D1250617C587D337F1D1248AF9044C37420F0900680E064036003021E11904E00B9
:401D80007430F0904E027406F0A37409F0A3E4F0A3F0A3741FF0904E08E4F0A3F0A3F09058847414F0A37423F0A37405F0A3E4F0A37412F0A304F0A37444F0A3F0A37410DF
:401DC000F090588E7401F0A37411F0A37419F0A37497F07F441253389058947458F0A3E4F090589A04F0A3F0A3F0A3740AF0E47F807E3EFDFC9006F7120F0B7D077F1D1203
:401E000050617C587D347F1D1248AF9044C37420F0900680E064046003021EB1904E007430F0904E027406F0A37409F0A3E4F0A3F0A3741FF0904E08E4F0A3F0A3F0905856
:401E4000847414F0A37409F0A304F0A3E4F0A37412F0A304F0A37455F0A3745AF0A37405F090588E7401F0A37411F0A37419F0A37497F07F441253389058947458F0A3E4FF
:401E8000F090589A04F0A3F0A3F0A3740AF0E47FD07E07FDFC9006F7120F0B7D077F1D1250617C587D357F1D1248AF9044C37420F0227B007A4679E81256FDEF4405FD7B1F
:401EC000007A4679E8125709E4F514E514C39405502CE51475F005A424B8F582E4345AAF82F5088F09F583120F358F82850883740393FC740493FD125455051480CDE4F508
:401F000014E514C394045061E51475F008A424D1F582E4345AAF82F50A8F0BF583120F358B0C8A0D890E8F82850A83A3A3A3120F358B0F8A1089118F82850A83740693F5EE
:401F400012740793F513C003C002C001AB0CAA0DA90E900655120F2CD001D002D003AF13AE1212516F051480987B087A007900125291905883740AF07B017A50790312562D
:401F8000FDEF4402FD7B017A5079031257097B017A5079131256FDEF4402FD7B017A5079131257099043A0E04440F09043C2E04410F07B087A0B7910C003C002C0017B003F
:401FC0007A517902900655120F2CD001D002D0037F087E0012516F7B087A0B7918C003C002C0017B007A5179C0900655120F2CD001D002D0037F0A7E0012516F7B087A0B29
:402000007924C003C002C0017B007A5179F2900655120F2CD001D002D0037F087E0012516F7B087A0B792CC003C002C0017B007A517912900655120F2CD001D002D0037F96
:40204000087E0012516F7B087A0B7934C003C002C0017B007A517922900655120F2CD001D002D0037F087E0012516F7B087A0B793CC003C002C0017B007A517932900655C8
:40208000120F2CD001D002D0037F087E0012516F7B087A0B7944C003C002C0017B007A517942900655120F2CD001D002D0037F087E0012516F7B087A0B794CC003C002C0E3
:4020C000017B007A517950900655120F2CD001D002D0037F0A7E0012516F7B087A0B7958C003C002C0017B007A517960900655120F2CD001D002D0037F0A7E0012516F7B09
:40210000017A0E79DB7D441257099044F47401F0904322E04408F09046ECE0C394055006904689743AF090480074F1F01233C890480074B1F01251A37B007A4379A0C001C1
:4021400079B0900655120F2CD0017F0E7E0012516F9043B0E054FDF022C0E0C0F0C083C082C085C084C086758600C093759300C0D075D000C000C001C002C003C004C0052C
:40218000C006C00790646BE090068BF0E030E52B900727E06411702390648BE054DFF09007277410F0900720E4F0A3E070051241D78008900721E0FF12581990068BE0FF79
:4021C00020E0030223BB20E3030222A690640CE090068CF0E0FF54FEFD900324E06D7001E46003EF705D90068CE054016035900720E0600A125236900721EFF08006900759
:40220000217401F0900721E0601190640C74FFF090647B740DF090645CE4F09007277412F0801890648BE04420F090647B7409F090645CE4F09007277411F0900607E4F085
:402240000223BB90647EE0704F9004A7E0FF90068CE06F7043900324E0FF90640CF090647B740DF090645CE4F0900608EFF09006497401F09004A8E024FE600B04700B902C
:40228000647E7401F080031252639007277412F0900607E4F00223BB90647B7419F090645CE4F00223BB900727E06411707290640CE090068CF0900720E0701590068CE013
:4022C000FF124047900721EFF09007207401F0802D900649E0FF900607E0FEC39F501390068CE0FF74082EF582E43406F583EFF080069007217404F0900607E004F09007A3
:4023000021E0700E90647B7409F090645CE4F00223BB90647B7419F090645CE4F00223BB900727E0641260030223B090068BE020E14C900721E07033900607E004F0900672
:4023400049E0FF900607E0FEC39F501174082EF582E43406F583E090640CF0801490640C74FFF09007217402F0800690640C74FFF090647B740DF090645CE4F0803D9064BD
:402380000C74FFF090647B741DF090645CE4F090648BE054DFF09007277410F0900720E4F0A3E0FF6015125819900721E4F0800B90647B7419F090645CE4F0D007D006D03D
:4023C00005D004D003D002D001D000D0D0D093D086D084D085D082D083D0F0D0E032900675EDF0900674EFF0E4900676F0A37410F0E4A3F0A3F0A3F0A304F0A3E4F0A3045B
:40240000F0E4A3F0A3F0EFD3940440030226189006FCE070059006F504F0900674E09006FBF0124A91900674E0FF121BE3900674E06401705C9006767405F0A3740CF0A3C8
:402440007492F0A374D2F090067E7480F0A3E4F07F307EFD7D13FC900684120F0B7F007E367D6E7C01124CA590067AEEF0A3EFF07FC07EF47D4F7C00900684120F0B7F0056
:402480007E367D6E7C01124CA590067CEEF0A3EFF0900674E06402705C900676740AF0A3740CF0A3748FF0A374D2F090067E7480F0A3E4F07F307EFD7D13FC900684120F13
:4024C0000B7F007E367D6E7C01124CA590067AEEF0A3EFF07FC07EF47D4F7C00900684120F0B7F007E367D6E7C01124CA590067CEEF0A3EFF0900674E06403705C9006764B
:402500007409F0A3740CF0A37491F0A3749DF090067E7480F0A3E4F07F307EFD7D13FC900684120F0B7F007E367D6E7C01124CA590067AEEF0A3EFF07FC07EF47D4F7C006D
:40254000900684120F0B7F007E367D6E7C01124CA590067CEEF0A3EFF0900674E06404705C9006767404F0A3740CF0A3748DF0A374B6F090067E7480F0A3E4F07F307EFD76
:402580007D13FC900684120F0B7F007E367D6E7C01124CA590067AEEF0A3EFF07FC07EF47D4F7C00900684120F0B7F007E367D6E7C01124CA590067CEEF0A3EFF090067ADC
:4025C00074FFF5F0120D1790067AE0FEA3E0FF7D0112362F90067C74FFF5F0120D1790067CE0FEA3E0FF7D0112350E900676E0FF900678E0FCA3E0FD90067EE0FAA3E0FB42
:40260000900677E0900685F0122DBE900675E0B4010612543C125783224207190000420717000041054E0041056F00013200014400042E00000000043B0000000004330024
:40264000000000044000000000042A0000000004220000000048059000000000000000005005802A302A302A302AF81B580A8C0C3F0C3F5005703138313831383840313860
:402680000CE40D890D8950051E25802580258023F0177009C40BDC0BDC50050E32C832C832C839D032C80D480DEC0DEC602004AA3D8000003D8000003D8000003D800000AA
:4026C0003D8000003E8000003E8000003E80000048059800020202020000006020052E411000004000000042A000003F80000041100000411000004110000041100000606D
:402700002004CE414000004020000042C8000042A80000414000004140000041400000414000006020054F40A0000040C000003E8000003E8000003F00000040A00000403F
:40274000A0000040A00000602004EE41200000404000004040000040400000404000004120000041200000412000004404CA02030405410323004104A90041071B004207C2
:402780001C12034206D800004106D6004206E000004106DB004206E200004206E400004406D2000000004406DC000000004106D7004106DA00015300014EFF0146FFC103DE
:4027C000C104025100004105B900410720004107210041064A004106F6004106F4004106FC004106F5004106FB014406FD000000004406F7000003E841072200410723FFDF
:402800004107280041072400410725FF410726004406EB016E36004406E600005DC04106EA184406F02EE0000045070D00089C3F01430712000000410729000090FFFC1283
:402840000F67120F0B90FFF8120F67900008120F8B120EE3851E83851F82120F0BE4FFFEFDFC900004120F8B120F0B90000D120F8B120F23E4120CBD90000C120F8BE0FF2F
:40288000D394005003022A21EFD394084003022A2174972FF582E43405F583E0FF7003022A216402600302297D851E83851F82C083C082120EFFC000C001C002C003900047
:4028C0000C120F8BE0FF25E025E0244BF582E43405F583120EFFEF25E025E024EAF582E43404F583120EE31209B5D003D002D001D0001209B5D082D083120F0BE4FFFEFDF3
:402900007C45851E83851F82120EFF120B5B600540030229ED90000D120F8B120F237401120CBD851E83851F82C083C082120EE3C004C005C006C0079005B6E0FCA3E0FDC5
:40294000EC120BEAA804A905AA06AB07D007D006D005D0041208C0D082D083120F0B851E83851F82C083C082120EE39005C2120EFF120ABED082D083120F0B8070851E839C
:40298000851F82C083C082120EE390000C120F8BE025E025E0244BF582E43405F583120EFF1209B5D082D083120F0BE4FFFE7D807C42851E83851F82120EFF120B5B60021B
:4029C000502B90000D120F8B120F237401120CBD851E83851F82C083C082120EE39005BE120EFF120ABED082D083120F0B90000D120F8B120F23120CA4B40125E4FFFE7D07
:402A0000807C41851E83851F82120EFF1209B5E4FBFAF9783F1208C4900004120F8B120F0B900004120F8B120EE3120C23900010120F672290FFFF120F67EDF090FFFF12EA
:402A40000F67EFF090FFFB120F67E4FFFEFDFC851E83851F82120F0B900006120F8BE064016003022B46900005120F8BE0FF125406900004120F8BEFF0900004120F8BE075
:402A80006025900004120F8BE014F0900006120F8BE0FD900004120F8BE0FF123E9D851E83851F82120F0B900005120F8BE02498F582E43405F583E0B40253851E83851F2E
:402AC00082C083C082120EE39005C2120EFF1209B5D082D083120F0B851E83851F82C083C082120EFFC000C001C002C0039005B6E0FCA3E0FDEC120BEAD003D002D001D0DF
:402B0000001208C4D082D083120F0B022BF4900005120F8BE02498F582E43405F583E064016003022BF4851E83851F82C083C082120EE39005BE120EFF1209B5D082D08358
:402B4000120F0B022BF4900005120F8BE0FF900004120F8BEFF0900006120F8BE0FD900004120F8BE0FF123E9D851E83851F82120F0B900005120F8BE02490F582E43405BD
:402B8000F583E07052851E83851F82C083C082120EE39005C2120EFF1209B5D082D083120F0B851E83851F82C083C082120EFFC000C001C002C0039005B6E0FCA3E0FDEC87
:402BC000120BEAD003D002D001D0001208C4D082D083120F0B801D851E83851F82C083C082120EE39005BA120EFF1209B5D082D083120F0B851E83851F82120EE390000773
:402C0000120F672290FFFD120F67120F2C90FFFF120F67EDF090FFFE120F67EEF0A3EFF090FFF8120F67900008120F8BE0FCA3E0FDE4120BEA851E83851F82120F0BE4FF2C
:402C4000FEFDFC900004120F8B120F0B90000B120F8B120F23E4120CBD90000A120F8BE0FFD394005003022DABEFD394084003022DAB851E83851F82C083C082120EE3900F
:402C8000000A120F8BE025E025E024A6F582E43404F583120EFF1209B5D082D083120F0B90000A120F8BE0248FF582E43405F583E06003022D36FFFEFD7C45851E83851FCD
:402CC00082120EFF120B5B60054003022D7790000B120F8B120F237401120CBD851E83851F82C083C082120EE3C004C005C006C0079005B6E0FCA3E0FDEC120BEAA804A9B9
:402D000005AA06AB07D007D006D005D0041208C0D082D083120F0B851E83851F82C083C082120EE39005C2120EFF120ABED082D083120F0B8041E4FFFEFD7C45851E83852B
:402D40001F82120EFF120B5B6002502B90000B120F8B120F237401120CBD851E83851F82C083C082120EE39005BA120EFF120ABED082D083120F0B90000B120F8B120F23EB
:402D8000120CA4B40125E4FFFE7D807C41851E83851F82120EFF1209B5E4FBFAF9783F1208C4900004120F8B120F0B900004120F8B120EE3120C2390000E120F672290066C
:402DC00081ECF0A3EDF0A3EAF0A3EBF0900680EFF024F9603C14606224FE7003022E6324066003022E8C900685E0D3940F40117B0C7A0179181256FD900686EFF0022E9190
:402E00007B0C7A01791C1256FD900686EFF0022E91900685E0D3940F40107B0C7A0179191256FD900686EFF080677B0C7A01791D1256FD900686EFF08057900685E0D3940D
:402E40000F40107B0C7A01791A1256FD900686EFF0803E7B0C7A01791E1256FD900686EFF0802E900685E0D3940F40107B0C7A01791B1256FD900686EFF080157B0C7A014B
:402E8000791F1256FD900686EFF08005E4900686F0900680E0FF601C64016018EF64026013EF6403600EEF64056009EF64066004EFB40909E4900687F0A3F0801C9006865C
:402EC000E0FF3395E0FEEF7805C333CE33CED8F9FF900687EEF0A3EFF0900687E0FEA3E0FF900682E02FFF900681E03E900689F0A3EFF0900683E0FEA3E0FF900689E0FCF2
:402F0000A3E0FD120F98E4FB7A80F9F8120DE9900689EEF0A3EFF0900685E0C3940E5028E0FDC3740E9DFF900689E0FEA3E0A807088005CEC313CE13D8F9F0EE900689F072
:402F4000ED04904E0EF08006904E0E740FF0900689E0FEA3E0904E0CF0EEA3F02290065BEFF0E4A3F0A3F0A3F0A3F0A3F0A3F090065BE075F00290040F120F17E0FEA3E008
:402F8000FF124B0290065CEEF0A3EFF090065BE075F002900371120F17E0FEA3E0FF124B0290065EEEF0A3EFF0D390065DE09F90065CE09E402790065EE07002A3E0601D78
:402FC0009003FEE04480F0A3E04420F0900660E04480F0A3E04420F090647EE4F090065BE075F00290037F120F17E0FEA3E0FF124B0290065EEEF0A3EFF0D390065DE09F54
:4030000090065CE09E402790065EE07002A3E0601D9003FEE04480F0A3E04401F0900660E04480F0A3E04401F090647EE4F090065BE075F00290039B120F17E0FEA3E0FF10
:40304000124B0290065EEEF0A3EFF0C390065DE09F90065CE09E502790065EE07002A3E0601D9003FEE04480F0A3E04401F0900660E04480F0A3E04401F090647EE4F09046
:40308000065BE075F00290038D120F17E0FEA3E0FF124B0290065EEEF0A3EFF0C390065DE09F90065CE09E502790065EE07002A3E0601D9003FEE04480F0A3E04401F0902E
:4030C0000660E04480F0A3E04401F090647EE4F0900660E0FEA3E0FF2290065BEFF0E4A3F0A3F0A3F0A3F0A3F0A3F090065BE075F002900401120F17E0FEA3E0FF124B0276
:4031000090065CEEF0A3EFF090065BE075F0029003C5120F17E0FEA3E0FF124B0290065EEEF0A3EFF0D390065DE09F90065CE09E402790065EE07002A3E0601D9003FEE08F
:403140004420F0A3E04401F0900660E04420F0A3E04401F090647EE4F090065BE075F0029003D3120F17E0FEA3E0FF124B0290065EEEF0A3EFF0D390065DE09F90065CE01B
:403180009E402790065EE07002A3E0601D9003FEE04420F0A3E04401F0900660E04420F0A3E04401F090647EE4F090065BE075F0029003EF120F17E0FEA3E0FF124B0290DE
:4031C000065EEEF0A3EFF0C390065DE09F90065CE09E502790065EE07002A3E0601D9003FEE04420F0A3E04408F0900660E04420F0A3E04408F090647EE4F090065BE075B0
:40320000F0029003E1120F17E0FEA3E0FF124B0290065EEEF0A3EFF0C390065DE09F90065CE09E502790065EE07002A3E0601D9003FEE04420F0A3E04401F0900660E044E4
:4032400020F0A3E04401F090647EE4F0900660E0FEA3E0FF2290FFFC120F67120F0B90FFF5120F6790000B120F8B120EE3900007120F8B120F0BE4FFFEFDFC900007120F32
:403280008B120EFFC3120EAC700D900005120F8BE4F0A3F00233B6900007120F8B120EE3780E120EBDEFEE5403FEE4EE4402851E83851F82F0A3EFF0900007120F8B120EB1
:4032C000E37817120EBD851E83851F82A3A3EFF0851E83851F82A3A3E0FF7E00900003120F8BEEF0A3EFF0900003120F8B74FF75F081120D17900003120F8B74FF75F0F7A4
:40330000120D17900003120F8BE0FEA3E0C394F0EE6480947F5029900003120F8BE475F001120D17851E83851F82C083C082E0C313FFA3E013D082D083CFF0A3EFF080C30E
:40334000E4FFFEFDFC90000B120F8B120EFF120B5B501C851E83851F82E06407FEA3E0F42401FFE43E851E83851F82F0A3EFF0900003120F8BE0A3E0851E83851F82A3A3E5
:40338000F0851E83851F82A3A3E07F0033333354F8FE900005120F8BEEF0A3EFF0851E83851F82E05407FEA3E0FF900005120F8BEE8FF0120D17900005120F8BE0FEA3E01B
:4033C000FF90000F120F67227B007A4079807D077C00125657904082741CF07B007A4079847D047C001256579040867418F07B007A4079887DB77C0B12565790408A74196F
:40340000F07B087A0B7964C003C002C0017B007A417900900655120F2CD001D002D0037F047E0012516F9043007402F09040007408F09042007403F07B0C7A0179081256A8
:40344000FD9046A1EFF07B007A4279227D087C001256577B007A4279207D517C12125657E490064FF07F19FEFDFC90064B120F0B90064B120EE3D3EF9400EE9400403B9060
:40348000064FE0FF64036032904225E05401FEEF25E04E540390064FF0E47FE07E01FDFC12510090064B120EE374FFFBFAF9F8120D4390064B120F0B80B690064B120EE363
:4034C000EF4E70057F0312582F7B007A4079047D007C011256579040047407F0904006E4F09040087448F0904004E4F09040017402F090400B7404F09043A2E04407F090E5
:4035000043A1E04401F09043A0E04480F022900680EEF0A3EFF0A3EDF012579B900684EFF0125766900685EEF0A3EFF0900680E0FCA3E0FD6F7002EC6E700302362E9043D3
:40354000A2E05402900683F0A3E0703FA3E0FEA3E0FF4E6004ED4C7032EF4E7015ED4C60117B027A407984125659904086E054BFF022904086E04440F07B027A407984907E
:403580000680E0FCA3E0FD12565922900683E06041904001E4F09040107402F0904014E4F0904008E0547FF07B027A407902900685E0FCA3E0FD1256599040017407F090D8
:4035C0004001E020E0F99043A2E054FDF0904001E4F09043A2E030E12F7B027A407902900680E0FCA3E0FD125659900682E060047F0280027F00EF4401904001F090400158
:40360000E030E01580F780117B027A407984900680E0FCA3E0FD1256599043A2C083C082E0FF900683E0FEEF4ED082D083F022900680EEF0A3EFF0A3EDF01257A390068436
:40364000EFF0125770900685EEF0A3EFF0900680E0FCA3E0FD6F7002EC6E700302374E9043A1E05401900683F0A3E0703FA3E0FEA3E0FF4E6004ED4C7032EF4E7015ED4C01
:4036800060117B027A417900125659904102E054BFF022904102E04440F07B027A417900900680E0FCA3E0FD12565922900683E06040904001E4F090401404F0904010E448
:4036C000F0904008E0547FF07B027A407902900685E0FCA3E0FD1256599040017407F0904001E020E0F99043A1E054FEF0904001E4F09043A1E030E02F7B027A407902907F
:403700000680E0FCA3E0FD125659900682E060047F0280027F00EF4401904001F0904001E030E01580F780117B027A417900900680E0FCA3E0FD1256599043A1C083C08258
:40374000E0FF900683E0FEEF4ED082D083F022C0E0C0F0C083C082C085C084C086758600C093759300C0D075D000C000C001C002C003C004C005C006C00712582512581D7E
:4037800012582112563912558690071AE02401FE900719E0340090071EF0A3CEF090071EE0FEA3E0FFC390071AE09F900719E09E40EB125807EF30E0781257207F40125778
:4037C000F590071AE02403FE900719E0340090071EF0A3CEF090071EE0FEA3E0FFC390071AE09F900719E09E40EB1254E21254CC12554D7FC01257F57F02124113D3EF94EB
:40380000B0EE940440067F01C00780047F00C0077F07124113D3EF944AEE940140047E0180027E00D0E04E70CFE4FF1257F512578B90071EE0FFA3E0900719CFF0A3EFF0AF
:403840001255AC125573125599D007D006D005D004D003D002D001D000D0D0D093D086D084D085D082D083D0F0D0E03290FFFE120F67EAF0A3EBF090FFFE120F67ECF0A375
:40388000EDF090FFFF120F67EFF090FFF8120F67900008120F8BE06026900009120F8BE0FEA3E0FFEE3395E0FDFCE47B10FAF9F8120D5E851E83851F82120F0B02394F90E0
:4038C000000B120F8BE0FEA3E0F5828E83120EE3851E83851F82120F0B851E83851F82120EE3EF2408FFE43EFEE43DFDE43CFC900004120F8B120F0B900004120F8BC083FB
:40390000C082120EE3E47B10FAF9F8124F68D082D083120F0B900004120F8B120EFF851E83851F82120EE3120D50A804A905AA06AB07900009120F8BE0FEA3E0FFEE33951A
:40394000E0FDFC120D43851E83851F82120F0B851E83851F82120EE390000B120F8BE0FAA3E0F5828A83120F0B851E83851F82120EE3EC120BE5E4FBFA79807841120ABE4F
:4039800090000D120F6722900606E0120F413A3E0039CE1A3A57403A57423A57433A57443A57463A574A3A57553A57573A57583A57593A48783A57793A48803A57883A57F9
:4039C0008B3A578C3A48983A74B000003A8AE490068EF090068EE0FFC394145020EF75F006A42444F582E4345DF583E493FF900609E06F600890068EE004F080D690068E05
:403A0000E0FF6414602B900608E090036FF0900609E0900370F0EF75F006A42449F582E4345DF583E4934480900609F054FCF08005E4900609F09006087401F0804C90038F
:403A40006EE0900608F08042900603120F23120CA4900608F08033900603120F23120CA4900609F0E92401F9E43AFA120CA4900608F08016900649E0FF7E0078087C067DDA
:403A800001900603120F23121081900608E090640CF090647B740DF090645CE4F022AD07AC06EC131313541FFF900668F0EC5407FCEF541060047F0180027F00900667EF9F
:403AC000F0EC30E2047F0180027F00900666EFF0600CEC6407FEEDF42401FDE43EFCAE04AF05E4120BEA900669120F0B900666E0600F900669120EE3120BD4900669120FBC
:403B00000B900667E06006A3E0641F04F0900668E0FD74017E00A805088005C333CE33CED8F990066EF0EE90066DF0EDB41018900669120EE3E4FBFA79807847120ABE9004
:403B40000669120F0B8066900667E06035900669120EE3C004C005C006C00790066DE0FCA3E0FDE4120BEAA804A905AA06AB07D007D006D005D004120ABE900669120F0BD9
:403B8000802B900669120EFFC000C001C002C00390066DE0FCA3E0FDE4120BEAD003D002D001D0001209B5900669120F0B900669120EE32290FFFF120F6712575C125752F1
:403BC0001255D27F00124297E490056FF0125539851E83851F82E4F0851E83851F82E0C394084003023CB3E0FF25E0240EF582E43405F583E0FCA3E0FDEF04FF1245278558
:403C00001E83851F82E0FF25E02470F582E43405F583E0FCA3E0FDEF04FF1243E5851E83851F82E0FF25E02480F582E43405F583E0FCA3E0FDEF04FF124344851E83851F20
:403C400082E0FF25E0241EF582E43405F583E0FCA3E0FDEF04FF124486851E83851F82E0FB25E025E024CEF582E43404F583120EE390FFFC120F67120F0BEB04FF12466947
:403C8000851E83851F82E0FB25E025E0242EF582E43405F583120EE390FFFC120F67120F0BEB04FF1245C8851E83851F82E004F0023BD890056F7401F0900001120F67224D
:403CC00090065BEFF0E4A3F0A3F0FFFEFDFCA3120F0BE4FFFEFDFC900662120F0B90065BE075F00290041D120F17E0FEA3E0FF123A9E90065E120F0B90065BE075F00290D4
:403D000003A9120F17E0FEA3E0FF123A9E900662120F0B900662120EE390065E120EFF120B5B602D402BE4FFFEFDFC900662120EFF120B5B601B9003FEE04440F0A3E04423
:403D400010F090065C7440F0A37410F090647EE4F090065BE075F0029003B7120F17E0FEA3E0FF123A9E900662120F0B900662120EE390065E120EFF120B5B602D402BE4C6
:403D8000FFFEFDFC900662120EFF120B5B601B9003FEE04440F0A3E04401F090065C7440F0A37401F090647EE4F090065CE0FEA3E0FF2275930078007583467582E8E0444D
:403DC00001F0009046ECE0F99046FAE0FAB903225420B40012B8001AEA900FFFF07401900FFEF09046F6F0900FFEE06005900FFFE0FA90480074C0F07581549000007800C5
:403E00007910E4F0A3D8FCD9FAEA9006EFF0020011751E0F751FFD121EB2023E580218B9E493A3F8E493A34003F68001F208DFF48029E493A3F85407240CC8C333C4540F0B
:403E40004420C8834004F456800146F6DFE4800B0102040810204080902619E47E019360BCA3FF543F30E509541FFEE493A360010ECF54C025E060A840B8E493A3FAE4935A
:403E8000A3F8E493A3C8C582C8CAC583CAF0A3C8C582C8CAC583CADFE9DEE780BE90FFFF120F67EDF090FFFF120F67EFF090FFFC120F67E4FFFEFDFC851E83851F82120F47
:403EC0000B9044CB7420F0900005120F8BE07022900004120F8BE075F0059002F8120F17120EE3EC120BE5851E83851F82120F0B802A900005120F8BE0B4012090000412E6
:403F00000F8BE075F00590023C120F17120EE3EC120BE5851E83851F82120F0B9044C37420F0900005120F8BE07020851E83851F82C083C082120EE3E4FBFA7980784112F1
:403F40000ABED082D083120F0B801E851E83851F82C083C082120EE3E4FBFA79807841120ABED082D083120F0B851E83851F82120EE3900006120F672290065BEFF0FBE4C2
:403F8000FFFEFDFCA3120F0BEBD39408400302404090065BE0FF940050030240407D01EF14FF122A3490065C120F0B90065BE0FB2497F582E43405F583E0B4012290065C9A
:403FC000120EE3EB25E025E0244BF582E43405F583120EFF120ABE90065C120F0B806190065BE02497F582E43405F583E0B4025090065C120EE3C004C005C006C007900637
:404000005BE0FF25E025E0244BF582E43405F583120EFFEF25E025E024EAF582E43404F583120EE31209B5A804A905AA06AB07D007D006D005D004120ABE90065C120F0BB3
:4040400090065C120EE32290068DEFF0E4A3F090068EE0FFC394144003024105EF75F006A42444F582E4345DF583E493FF90068DE0FE6F60030240FCA3E0FF75F006A424B1
:4040800045F582E4345DF583E493900649F0900606EEF0EF75F006A42449F582E4345DF583E493FF900602F090068EE075F006A42446F582E4345DF583120F3590060312E8
:4040C0000F2CEF5480603E90064AE0FDF46017900649E0FF7E007C00120CCF900604EE8FF0120D17801F900602E0FF54027006EF54C0F08010E4900602F0800990068EE0BC
:4041000004F002404F90068EE0B414047F0880027F002290FFFF120F67EFF090FFFC120F67E4FFFEFDFC851E83851F82120F0B900004120F8BE0FFD394085067EF9400401E
:40414000627D00900004120F8BE014FF122A34851E83851F82120F0B851E83851F82C083C082120EE3900004120F8BE025E025E024A6F582E43404F583120EFF120ABED0A9
:4041800082D083120F0B851E83851F82C083C082120EE3E4FBFAF9783F1208C4D082D083120F0BE4FFFEFDFC851E83851F82120EFF120B5B500EE4FFFEFDFC851E83851F33
:4041C00082120F0B851E83851F82120EE3120C23900005120F6722900602E054027003024276900606E0120F4142140042464042464242464342464442464642464A4246C2
:4042000055424657424658424659422F7842467900004296900608E0FFC394074004EFF47074900608E090064AF090036EF022900607E0C39401405EA3E0FF900603120FD1
:4042400023EF120CBD22900607E0C394024047900609E0FF900603120F23EF120CBD900608E0FF900603120F23E92401F9E43AFAEF120CBD2222900602E054406013900611
:4042800049E0FF900607E0C39F400BE4FF124DBF227F101258192290FFFF120F67EFF090FFEE120F67851E83851F82A982AA83A801AC027D017BFF7A5D79BC7E007F091244
:4042C00010817B01900009120F8BA982AA83A801AC02AD037BFF7A5D79C57E007F09121081900012120F8BE0D394085050905802E05480F0C083C082E0FF900012120F8B58
:40430000E0FE900009120F8BE5822EF582E43583F583E0FD25E025E0540CFCE51F2EF582E4351EF583E04C4FD082D083F0905801E054F3F0E0FFED440CFEEF4EF0900013A5
:40434000120F672290FFFE120F67ECF0A3EDF090FFFF120F67EFF090FFFB120F67900004120F8BE4F07B01900004120F8BA982AA83900005120F8BE0FD900006120F8BE0B3
:40438000FEA3E0FF122C04851E83851F82120F0B900004120F8BE0640170439044CB7420F0851E83851F82120EE3900005120F8BE0FB75F01590023F120F17120F0B9000BE
:4043C00006120F8BE0FEA3E0FF75F015EB900249120F17EEF0A3EFF09044C37420F0900008120F672290FFFE120F67ECF0A3EDF090FFFF120F67EFF090FFFB120F6790006E
:4044000004120F8BE4F07B01900004120F8BA982AA83900005120F8BE0FD900006120F8BE0FEA3E0FF122C04851E83851F82120F0B900004120F8BE0640170439044CB741F
:4044400020F0851E83851F82120EE3900005120F8BE0FB75F01590023B120F17120F0B900006120F8BE0FEA3E0FF75F015EB900247120F17EEF0A3EFF09044C37420F090F3
:404480000008120F672290FFFE120F67ECF0A3EDF090FFFF120F67EFF090FFFB120F67900004120F8BE4F07B01900004120F8BA982AA83900005120F8BE0FD900006120FD5
:4044C0008BE0FEA3E0FF122C04851E83851F82120F0B900004120F8BE0640170439044CB7420F0851E83851F82120EE3900005120F8BE0FB75F015900001120F17120F0BE2
:40450000900006120F8BE0FEA3E0FF75F015EB90000B120F17EEF0A3EFF09044C37420F0900008120F672290FFFE120F67ECF0A3EDF090FFFF120F67EFF090FFFB120F676C
:40454000900004120F8BE4F07B01900004120F8BA982AA83900005120F8BE0FD900006120F8BE0FEA3E0FF122C04851E83851F82120F0B900004120F8BE06401704390448D
:40458000CB7420F0851E83851F82120EE3900005120F8BE0FB75F01590FFFD120F17120F0B900006120F8BE0FEA3E0FF75F015EB900009120F17EEF0A3EFF09044C3742074
:4045C000F0900008120F672290FFFF120F67EFF090FFFB120F67900004120F8BE4F07B01900004120F8BA982AA8390FFFD120F67120F2C900008120F8BE0FF90FFFF120F27
:4046000067EFF090000A120F8B120EE312283C851E83851F82120F0B900004120F8BE06401703F9044CB7420F0851E83851F82120EE3900005120F8BE0FB75F015900243EC
:40464000120F17120F0B900006120F8B120EE375F015EB90024B120F17120F0B9044C37420F090000A120F672290FFFF120F67EFF090FFFB120F67900004120F8BE4F07BF6
:4046800001900004120F8BA982AA8390FFFD120F67120F2C900008120F8BE0FF90FFFF120F67EFF090000A120F8B120EE312283C851E83851F82120F0B900004120F8BE091
:4046C0006401703F9044CB7420F0851E83851F82120EE3900005120F8BE0FB75F015900005120F17120F0B900006120F8B120EE375F015EB90000D120F17120F0B9044C363
:404700007420F090000A120F6722C0E0C0F0C083C082C085C084C086758600C093759300C0D075D000C000C001C002C003C004C005C006C0071257FBEF6404547FFF1257D0
:40474000F5900719E475F001120D2DAFF090071EF0A3EFF0C390071AE09488900719E094134020E4F0A3F090071775F001120D17D3900718E094A0900717E094054004E49B
:40478000F0A3F0D007D006D005D004D003D002D001D000D0D0D093D086D084D085D082D083D0F0D0E03274982553F582E43405F583E0FF7004055380EDEF6401702F85531E
:4047C00048AF481253E5AF481253C4E54E64026016754E02E4FD7F021223DE7C007D1A7F1D1248AF12543C854E47D20422E5532425F548FF1253E57F251253C4E54E6404EC
:404800006023754E04E4FD7F041223DE90589A7402F0A3F0A3E4F0A3F07C007D1A7F1D1248AF12543C854E47D2042290FFFE120F67EEF0A3EFF090FFFA120F67851E838595
:404840001F82E4F0A3F0FFFEFDFC851E83851F82A3A3120F0B900006120F8BE0FCA3E0FDE4120BEA851E83851F82A3A3120F0B851E83851F82A3A3C083C082120EE3E4FB3C
:40488000FA797A7844120ABED082D083120F0B851E83851F82A3A3120EE3123255851E83851F82EEF0A3EFF0900008120F672290FFFE120F67ECF0A3EDF090FFFF120F6701
:4048C000EFF090FFFE120F67851E83851F82A3A3E0541F25E0FFE433FEE42FFFEE3444FAA9077B0112564A851E83851F82EEF0A3EFF0851E83851F82A3A3E075F002A42429
:4049000000FFE5F03444FAA9077B01900003120F8BE0FEA3E0FFFDAC06125659851E83851F82E0FEA3E0FF900005120F6722E4F54B754A01854B48AF481253E5900590E0C9
:4049400070347F251253C4E54E64046023754E04E4FD7F041223DE90589A7402F0A3F0A3E4F0A3F07C007D1A7F1D1248AF12543C854E47D20422AF481253C4E54E64016061
:4049800023754E01E4FD7F011223DE90589A7402F0A3F0A3E4F0A3F07C007D1A7F1D1248AF12543C854E47D20422C0E0C0F0C083C082C085C084C086758600C093759300B1
:4049C000C0D075D000C000C001C002C003C004C005C006C007900658E4F0A3F0A3F01257E3EF541F900658F0900400F09003FEE04410F0A3E04401F090647EE4F0D007D074
:404A000006D005D004D003D002D001D000D0D0D093D086D084D085D082D083D0F0D0E0329005B87401F0A207E433FF1210FC9005B87402F0A207E433FF1210FC9005B87458
:404A400003F0A207E433FF1210FC9005B87408F0A207E433FF1210FC9005B87409F0A207E433FF1210FC9005B8740AF0A207E433FF1210FC9005B87404F0A207E433FF121B
:404A800010FC9005B87407F0A207E433FF1210FC22904E00E054FEF0A3E04404F09046F8E04402F0A3E04402F0905891E054FCF0A3E054F7F07F037E001252649046F8E00E
:404AC00054FDF0A3E054FDF09043AAE054EFF0E054FEF09043BAE054FEF0E054EFF0905877E054F9F09043A1E054FEF09043B1E054FEF09043A2E054FDF09043B2E054FD39
:404B0000F02290FFFE120F67EEF0A3EFF090FFFA120F67851E83851F82E4F0A3F0FFFEFDFC851E83851F82A3A3120F0B900006120F8BE0FEA3E0FF123A9E851E83851F829E
:404B4000A3A3120F0BE4FFFE7D7A7C44851E83851F82A3A3120EFF1209B5120C23851E83851F82EEF0A3EFF0900008120F6722C0E0C0F0C083C082C085C084C086758600DC
:404B8000C093759300C0D075D000C000C001C002C003C004C005C006C00712513B7F201258199004A9E4F0900720F0A3F012546E9044C07410F0D007D006D005D004D00399
:404BC000D002D001D000D0D0D093D086D084D085D082D083D0F0D0E0329043AAE04401F0E04410F09043BAE04401F0E04410F09006FBE0640170269046F8E04402F0A3E0AA
:404C00004402F0905891E04403F07F037E001252649046F8E054FDF0A3E054FDF0905877E04406F09043A1E04401F09043B1E04401F09043A2E04402F09043B2E04402F072
:404C40002290064E7427F0A37410F07F017E001252641254F8900650EFF090064E74FFF5F0120D1790064EE07002A3E06007900650E030E7D61254F8900650EFF030E72400
:404C800090071BE0700B1252EA90071B7401F0801090071CE0FF12538090071DE0FF124FAC1255F722900680120F0BE47F0AFEFDFC900680120EFF120D5E900684120EFFCA
:404CC000120DE9900688EEF0A3EFF0900684120EFF900680120EE3120DE9AB07AA067C007D0A120CCFC3900689E09FFF900688E09EFEC3EF9405EE940040050BEB70010A05
:404D0000AE02AF0322EFC394265057EF2FFF25E02436F582E43458F583E493FC740193F5828C83C083C082E0FEEF9058CE93F4FDEE5DD082D083F00FEF25E02436F582E4DC
:404D40003458F583E493FC740193F5828C83C083C082E0FEEF9058CE93F4FFEE5FD082D083F022EFC394265055EF2FFF25E02436F582E43458F583E493FC740193F5828C32
:404D800083C083C082E0FEEF9058CE93FDEE4DD082D083F00FEF25E02436F582E43458F583E493FC740193F5828C83C083C082E0FEEF9058CE93FFEE4FD082D083F022902D
:404DC0000325EFF0900606E0900326F0900649E0900328F0900602E05480600A90064AE0900327F08005E4900327F0900607E0601D14F0E0FF2408F582E43406F583E0FEF6
:404E000074292FF582E43403F583EEF080DD9004A97401F09044C87410F022EFC394455053EF2FFF75F00290591A120F17E493FC740193F5828C83C083C082E0FEEF905A63
:404E40002E93F4FDEE5DD082D083F00F75F002EF90591A120F17E493FC740193F5828C83C083C082E0FEEF905A2E93F4FFEE5FD082D083F022EFC394455051EF2FFF75F05D
:404E80000290591A120F17E493FC740193F5828C83C083C082E0FEEF905A2E93FDEE4DD082D083F00F75F002EF90591A120F17E493FC740193F5828C83C083C082E0FEEFF7
:404EC000905A2E93FFEE4FD082D083F0229044C87420F07D077F0512506190648D7401F012552490064EEFF090649DE04410F090064EE0FF12548690642D74FFF012552482
:404F000090064EEFF090649DE04403F090064EE0FF1254867F3F7E9C12571590648D7401F02290647B7408F090648B7401F012552490649BE04410F012548690648F740712
:404F4000F0124ECD9044C87410F07D077F041250619007277410F012580D125813E4900704F07F2012579322C2D5E830E70FB2D5E4C39BFBE49AFAE499F9E498F8EC30E71A
:404F800017B2D5124F9E120DE9E4C39BFBE49AFAE499F9E498F88003120DE930D50DE4C39FFFE49EFEE49DFDE49CFC22900651EFF0125524904320E0FEE0FE900651E0FD6B
:404FC000C4335460FDEE549F4D904320F0125486900651E0B401097F031253A2125608227F011253A212561922905B00E0900004F0905B02E0900005F0905B03E09000063D
:40500000F0905B04E0900007F0905B06E0900008F0905B00E4F0905B02F0A3F0A3F0905B06F0D20322905B00E4F0905B02F0A3F0A3F0905B06F0900004E0905B00F09000B5
:4050400005E0905B02F0900006E0905B03F0900007E0905B04F0900008E0905B06F0C2032290FFFF120F67EDF090FFFF120F67EFF0851E83851F82A3E0540775F020A4FF4A
:40508000851E83851F82E0541F2480F582E43444F583EFF0900002120F6722905AF1120EEFEFB4AA1EEEB4551A786A7C037D017BFF7A5A79F17E017F3B121081E490064EA6
:4050C000F0800690064E7406F090064EE0FF229044CB7420F07D077F1D12506112577A8F49C200754BFF754AFFE4F54D7C007D1A7F1D1248AF9044D37420F09044C3F02255
:40510000EC4D4E700D78FCEF24E950032840FD2200007BF178DA0000EF28FF78FFEE38FEED38FDEC38FC50E7EF2BFFEE38FEED38FDEC38FC40F222050203049044C8741038
:40514000F090648BE054DFF090646BE0FF1255E512552490649FE054DFF012548690647BE054FEF09044D87410F0900727F022758600EF4E6027EF60010E75930090065595
:40518000E0F595A3E0F585A3E0F5848B938A838982E0A30586F0A31586DFF6DEF4E4F593F595227B0C7A0179CF1256FDEF540790586EF0EFC4540FA3F0905A037402F09090
:4051C0005A387450F0905B0074B0F0905B58F09058767444F02290FFFF120F67851E83851F82E4F0851E83851F82E0FFC39426500E124D05851E83851F82E004F080E5905A
:405200000001120F672290FFFF120F67851E83851F82E4F0851E83851F82E0FFC39445500E124E1B851E83851F82E004F080E5900001120F6722E490068DF0900602E0546A
:405240000160051239878015900602E0542060077F01124DBF800690068D7410F090068DE0FF2222EEFA9006EAE0F88FF0A4FFAEF0E88AF0A42EFEE5F03400FDEF24C9FFFA
:4052800078FFEE38FEED38FDE438FC500302510022ACEAADA08B938A838982E0F96017A3E0F5EAA3E0F5A0A3E060F4FAA3E0F8A3E0F2DAF8D9E98DA08CEAE4F59322124F87
:4052C0002290647E7401F09004A8F09004A77419F09003247440F07C217D597F041248AF7C4B7D6F7F051248AF22125524904321E0FEE0FE4404F0A3E0FDE0FE54FDF012F1
:405300005486E4FF12562A7F121253807F03124FAC2212582912582CE4FF1257E9E4FF1257EFE47FFFFEFDFC12549EE47FFFFEFDFC1254B5754C0C229046F8E04403F0A316
:40534000E04403F0905892EFF07F037E001252649046F8E054FCF0A3E054FCF0227F01121BE37F101256F07F101256E3900685740CF07B007A807DD27C927F05122DBE22D1
:40538000900651EFF0125524904320E0FEE0FE900651E0541FFDEE54E04D904320F012548622900652EFF0125524904321E0FEE0FE900652E05403FDEE54FC4D904321F0C9
:4053C00012548622900674EFF0900723E0FFF46003124D05900674E0FF124D63900674E0900723F022900674EFF0900725E0FFF46003124E1B900674E0FF124E75900674E3
:40540000E0900725F022E4FEFDEDD39F501174982DF582E43405F583E060010E0D80EAAF0622905800740CF0A3E04420F0A37480F07F001242977F021256BA229006FCE0E6
:40544000700F9006F5E0700312535D9006FC7401F0124BD922EC4D6011ED60010C8B938A838982E4F0A3DDFCDCFA7593002212552490649FE04420F012548690647BE04463
:4054800001F01256C822EF54016004D2AF8002C2AFEF5402FF9044F4E054FD4FF0229044CB7420F0EFE48F29F528F527F5269044C37420F0229044CB7420F0EFE48F3AF5FC
:4054C00039F538F5379044C37420F022C2059044CB7420F0906471E054FDF09044C37420F022C2069044CB7420F0906471E054FEF09044C37420F022125524904324E0FE21
:40550000E0900651F0125486900651E0FF229043A9E04401F09043B9E04401F0905877E04480F0229044F4E0F84402F0E85402FF10AF012274014FFF22754F0875540C8599
:405540005450D2071250CF124A20C2072290054EE0700912531290054E7401F0123BB422900323E070091252BE9003237401F01256D6221257B27E377F4F1256827F011232
:40558000572A1257AB221257C07E477F0A125690E4FF1257341257B9221257CE7E497FAA12569E7F0712573E1257C7221257DC7E157F731256AC7F071257481257D5229050
:4055C0004E11E0FD7C00FE904E10E0FBEEFCEBFDFF22900728E070091254229007287401F012550E229044C87420F09044D8F0906579E054FEF022125524904321E0FEE033
:40560000FE4408F012548622125524904322E0FEE0FE4401F012548622125524904322E0FEE0FE54FEF012548622EF25E05406FF904325E054F94FF0229043A2E04404F0B7
:405640009043B2E04404F0228B938A838982E0FFA3E0FE759300228B938A838982EDF0A3ECF075930022125524906597E04410F012548622125524906596E04410F0125406
:4056800086227B027A447904AD07AC06125659227B027A447900AD07AC06125659227B027A447902AD07AC06125659227B027A447906AD07AC0612565922905801E054FC29
:4056C000FEEF54034EFEF022906579E04401F09044C07420F02212509B12546E9044C07410F022904086E0FEEF54F8FFEE4FF022904102E0FEEF54F8FFEE4FF0228B938AB1
:40570000838982E0759300FF228B938A838982EDF075930022EF90644DF0EE90645DF02212513B90647E7401F022EFC43354E0904482F022EFC43354E0904480F022EFC4D8
:405740003354E0904481F022EFC43354E0904483F0221251D69007227401F0221252069007247401F0227B027A40798412564A227B027A41790012564A227F107410D39FA1
:40578000400022904E00E04401F0229046F6E04401F022EF547F90070BF022904086E05407FF22904102E05407FF229044C07404F0229044C87404F0229044C07401F022B9
:4057C0009044C87401F0229044C07402F0229044C87402F0229044C07408F0229044C87408F022906566E0FF22EF5407F53F22EF5407F52122906577EFF022906577E0FFC4
:405800002290646AE0FF2290646EE0FF22E490070CF022E4900701F022EF7000221257B2221257CE221257DC22D20522D2062280FE22323232325B0343245B0343245B039C
:4058400043245B0343245B0343245B0343245B0343245B0343245B0343245B0343245B0343245B0343245B0343245B0343245B0343245B0343245B0343245B0343245B03D8
:4058800043245B0343245B0343245B0343245B0343245B0343245B0343245B0343245B0343245B0343245B0343245B0343245B0343245B0343245B0343245B0343245B0398
:4058C00043245B0343245B0343245A0A5B064000400040004000400040004000400040004000400040004000400040004000400040004000400040004000400040004000B2
:405900004000400040004000400040004000400040004000400040000202510D4324513D4324513D4324513D4324513D4324510D5B00510D4324510D43245B0343245B0364
:4059400043245B0343245B0343245B0343245B0343245B0343245B0343245B0343245B0343245B0343245B0343245B0343245B0343245B0343245B0343245B0343245B03D7
:4059800043245B0343245B0343245B0343245B0343245B0343245B0343245B0343245B0343245B0343245B0343245B0343245B034324513D4324513D4324513D4324513DD7
:4059C00043245B0343245B0343245B0343245B0343245B0343245B0343245B0343245B0343245B0343245B0343245B0343245B0343245B0343245B0343245B0343245B0357
:405A000043245B0343245B0343245B0343245B0343245B0343245B0343245B0343245B0343245B0343245B0343245B03432401001000080004000200044010008000040091
:405A400004000400040004000400040004000400040004000400040004000400040004000400040004000400040004000400040004000400040004000400400080000100F1
:405A80002000040004000400040004000400040004000400040004000400040004000400040004000400040004000400040004000400040004000400010000100001140034
:405AC00008000140000A00014C0002000150000020005228080AF00007005230080AF80007005260080B000006005278080B080007000000000000000000000000000000C6
:405B00000000000000000000000000000000000000000000000000000000000000000000000000000000000000000000000000000000000000000000000000000000000065
:405B40000000000000000000000000000000000000000000000000000000000000000000000000000000000000000000000000000000000000000000000000000000000025
:405B800000000000000000000000000000000000000000000000000000000000000000000000000000000000000000000000000000000000000000000000000000000000E5
:405BC00000000000000000000000000000000000000000000000000000000000000000000000000000000000000000000000000000000000000000000000000000000000A5
:405C0000000000000000000000000000000000000000000000000000000000000000000000000000000000000000000032C832C8000032C80E100DEC0DEC31383138000094
:405C400031380D480D890D892A302C882AF81B580A8C0C3F0C3F2580293623F0177009C40BDC0BDC42C800004020000042A8000000000000000000000000000000000000DE
:405C800042A00000400000003F8000000000000000000000000000000000000032C80000384000000000000000003138000033F400000000000000002C8800002AF800002B
:405CC0000000000000002936000023F0000000000000000050313256202020202020202020202020503132565F5354425920202020202020564241545420202020202020BE
:405D000020202020564D454D20202020202020202020202056434F494E2020202020202020202020503356335F5354425920202020202020503356332020202020202020B6
:405D400020202020000101036E7F1A0201036F3D4002010371E3420201037FE3430201038DE3440201039BE346020103A9E34A020103B7E355020103C5E357020103D3E348
:405D800058020103E1E359020103EFE378010103FD7F79020103FE7F80010104003D8802010401A18B0201040FA18C0201041DA1980101042B3DB01101042CB10111213107
:405DC00041615363730809010105070704040000000000000000000000000000000000000000000000000000000000000000000000000000000000000000000000000000AA
:405E00000000000000000000000000000000000000000000000000000000000000000000000000000000000000000000000000000000000000000000000000000000000062
:405E40000000000000000000000000000000000000000000000000000000000000000000000000000000000000000000000000000000000000000000000000000000000022
:405E800000000000000000000000000000000000000000000000000000000000000000000000000000000000000000000000000000000000000000000000000000000000E2
:405EC00000000000000000000000000000000000000000000000000000000000000000000000000000000000000000000000000000000000000000000000000000000000A2
:0200000480007A
:4000000025005204088009C014FF24FF0064070DFF1DFF2C042DFF2E957E018F070065062695270928952995861F8701010041000C0105040105030704080309060A1C0B42
:40004000090C010F0110031105121014091501160619011A011B061D061E031F08200C230724052501260A29022A0F2C012D05310F341F3E103F01580459045F0183038522
:40008000038B038D0390029103920195039B049D03A102A503A801AA06AB01AD03B004B203B507BB20D804D904DB04DC09DD90DF010101300018034608500AA00E80100290
:4000C0001115171019101C201E8022012704285029202A0A2B032D442F483002310832D0330835123680370438A0391E3B803C083D103E023F806F10850287018C028E0251
:400100008F40C00FC21FC44FCAFFCCFFCEFFE010E484E60801031A39013A0182098F489010920294A0954996209B209D209E089F40A205A508A680AC14AD01AF20B110B66A
:4001400005E204E603E850EC20EE020104033F0459045F0101051A220480108108860488018D409010922294A0950898019A019B209D20A205A308A508A680AC01B410B514
:4001800040B610E042E209E409EA0201071183019158922294A098019A019B20A20DA308A401AD24B110B280B608E001EA08EE020108340002010C03120602071009080B16
:4001C000040D040E020F08120113011A021D1E1E02210423082B022F203101320233203401351E3E04580459045F01820E850186018A328E689254960E97019B019E329F41
:4002000002A268A503A654AA80AF01B080B47FB703BE10D804D904DB04DF0101095A0040024803A104840760080809800A400D020E0A0F0811041323188019101B021E04E6
:400240001F0422402604274429042A802D012E102F02302832403540360138043D023E243F4058545B0260406120624063206602674079047B107E017F018112820284140A
:4002800085808810900C910192609680973A99409AA29D079F44A038A183A201A301A402A540A606A72EA809A980AA40AB05AD05AE08AF40B010B1C0B210C0BFC2DDC40E01
:4002C000CABACC9ECEF2D60FD80FE208E404EA84EE41010A36040107010B011302150119011C011F0123012B043307340139083E103F04580459045B045F01830186068796
:40030000108B068C028E088F019108940496039710980299079A0C9E069F10A110A206A703A901AB04AE06AF10B307B40EB518B601BA20D21DD420D604D804D904DB04DFE7
:4003400001010B5302100320054006200710082009400A060D080E040F021501160219101E07202024102510261829022A102D082E212F02329133083614374139203B04D8
:400380003C143F424C064D404E08580859915CA167886C506D046F01744080C081088202851087408A808D1090049220930494A09541968097309A829B109D049F44A02889
:4003C000A10BA301A442A510A603A706A920B004B711C0A4C2E1C490CAF5CCFFCEF6D6BFD8A0E080E408EA42EC41010C6102060C020E04120116081A011C012002220426AF
:400400000128042A022E013001320834063E104052440345B047D0482249FF4A7F4BFF4C424DA04E70500C58045A045F01610962406309643065098084822184C685108662
:400440002188188B018F02901092E09407951C961898FF99089C219D049EC6A063A51CA8E0A901AA08AB02AD04AF18B11CB4FFB503B820C036C104C506C702C811C9FFCA01
:400480007FCBFFCC42CDA0CE70D00CD604D804D904DA04DB04DF01E0F0E108E2F0E308E4F0E508E6F0E708EA40EB40EE90EF50010D5701210310064209100A400B120C04AE
:4004C0000E420F08108012081505175019201D2A2111221029042A802B082E402F023020324839683A023B023C043D0441054280452848204A044C804D084E22500851040F
:40050000550159015A806240634280048101822887408C808D019004930694A0952197209C809D089F14A204A309A442A510A702A802AA04AC05AD05AF04B204B304B53041
:40054000B680C09EC2FFC4FACA0ECC0ECE0ED063D214D609D801E210E880EA02EC24EE01010E4406010C012B01300135013E0140524702481049FF4AFF4BFF580459045A6A
:40058000045B045F0160806240634064406540668068806A806C806E80800582028314840285038605880289068B088E018F019104920894059504980599049D039E07A0F4
:4005C00005A105A312A404A704A807AB17AC05AD06AF19B00FB11FB908BA02BF05D602D728D804D904DB04DE08DF01010F440004030204A0050107100C200D020E200F020E
:4006000011041308140415401680170418401B011D011F0120042502260429202D092F053480361037093C843D203F0241104802530858215A045B406002612067206A803E
:400640006C206D446E606F017D2080208240861089208C408E408F40C0F5C2F0C4F0CAF4CCF0CEF0D004D208D60FD84CDE20E010E240E481E64001150E80409080AA82ACE7
:4006800050AD08AF80B108B204B524B640E001E828EA80EC0C0116470D020F0117011F02310340614602480449FF4AFF4BFF560459045A045B045F016080624063406440DE
:4006C0006540668068806A806C806E8080048203840585018602870288048B039503960499029B019E08A103A406A601A803AC03B20FB703BA08BF40C012C502C801C9FFBC
:40070000CAFFCBFFD604D804D904DA04DB04DD02DF01E080E240E340E440E540E680E880EA80EC80EE800117490114038009080A021014120118201908230127402A01308B
:4007400014321033083440360837403820390C3F8041204202474048104E085740582259045A405D405E0A5F20600862826401650268456A0870407280800282808448854F
:4007800020860288058A808C20915892229420970198019A019B209D02A20DA308A401AD02B440C00EC205C407CA01CC56CE16D01CD220D6FFD89DE208E60501185C01028F
:4007C00003040401060207040A180C010E02160817021A041E032002220125012A1031013218340735063E103F0140234520480249FF4AFF4BFF580459045A045C025F013E
:4008000060806240634064406540668068806A806C806E80800281048302850688028C019101961099029A209B049C08A306A604A810AA20AB01AD06B008B101B201B306B0
:40084000B430B606B908BE41BF01C032C702C810C9FFCAFFCBFFD201D804D904DA04DB04DF01E080E240E340E440E540E680E880EA80EC80EE8001194F016203040408055D
:400880001006020710082809400D080E040F021018144419051A411B301C201D081F102201231024802704284029602F2032023310370438043A023E083F0140284320465E
:4008C0000847044F0150086940821083108410881089408A028B088D028F04900C92249602973099429A029D05A301A402A540A728AB81AF01B048B124B208B610B704C08D
:40090000EBC2E7C456CA4DCC45CEC3D066E0A0E240E420EA03EE14011B148240860187108A098C629080924393109C209E08A402A910AC44B204B520E00DE402E820EA105B
:40094000EE2001401201200210044209200A200D820E04334136183B80821089208D80C0F0C2F0CCF0CE10E42001410F322086209040920497809F41A610AE18B102B4015A
:40098000B520CC10E640E840EA1001420A860487408C409040920497809F41A610E040E2100143029F41A61001441108800C010E0412201508568060106D1077407F80808E
:4009C00010C207C40CD402D802DA01DE050145110182050807020B240C229108951098019E809F40A880AB80AE04B620C00FC20FEA080146110404441085108F80932495AE
:400A000010998A9B029E80A022AB40AC01B104C004D001E002EE0101471356045D10830484028B0291109324998A9C109E80A022A380A802AB02B404D402D604E401EE02D9
:400A400001480E03202101274052025380561087019F41AE10C010C8C0D4E0E240EE10014907AA02AB20AE10B101B380EAC0EC20014C11630866028A028E809C109E84A337
:400A800086A820A902AF04B188B310D803E001E408EA05EE01014D1D08100E485010510157825D017220760477808010820485018620881089018E448F809E04A382B01077
:400AC000C207D407D605DC03DE04E206E409E602E80401500900010101080109010C010E0110051A051C0501510200FF010F00001C090F0FE000000001100E00E0000000A7
:400B0000A0908000300000000402100021000000000000000000950030000000B000B08000000000211E1E001E10000000C0C000C0000000FF00000000000000000000002F
:400B40000000FF00FF000000000000000C00E0111F001F0F000000001000E00F1F001F0E0000000011001801000000000000000000000000000000000000000000000000B8
:400B80000000000000000000000000000000000000000000000000000000000000000000000000000000000000000000000000000000000000000000000000000000000035
:400BC00000000000000000000000000000000000000000000000000000000000000000000000000000000000000000000000000000000000000000000000000000000000F5
:400C000000000000000000000000000000000000000000000000000000000000000000000000000000000000000000000000000000000000000000000000000000000000B4
:400C40000000000000000000000000000000000000000000000000000000000000000000000000000000000000000000000000000000000000000000000000000000000074
:400C80000000000000000000000000000000000000000000000000000000000000000000000000000000000000000000000000000000000000000000000000000000000034
:400CC00000000000000000000000000000000000000000000000000000000000000000000000000000000000000000000000000000000000000000000000000000000000F4
:400D000000000000000000000000000000000000000000000000000000000000000000000000000000000000000000000000000000000000000000000000000000000000B3
:400D40000000000000000000000000000000000000000000000000000000000000000000000000000000000000000000000000000000000000000000000000000000000073
:400D80000000000000000000000000000000000000000000000000000000000000000000000000000000000000000000000000000000000000000000000000000000000033
:400DC00000000000000000000000000000000000000000000000000000000000000000000000000000000000000000000000000000000000000000000000000000000000F3
:400E000000000000000000000000000000000000000000000000000000000000000000000000000000000000000000000000000000000000000000000000000000000000B2
:400E40000000000000000000000000000000000000000000000000000000000000000000000000000000000000000000000000000000000000000000000000000000000072
:400E80000000000000000000000000000000000000000000000000000000000000000000000000000000000000000000000000000000000000000000000000000000000032
:400EC00000000000000000000000000000000000000000000000000000000000000000000000000000000000000000000000000000000000000000000000000000000000F2
:400F000000000000000000000000000000000000000000000000000000000000000000000000000000000000000000000000000000000000000000000000000000000000B1
:400F40000000000000000000000000000000000000000000000000000000000000000000000000000000000000000000000000000000000000000000000000000000000071
:400F80000000000000000000000000000000000000000000000000000000000000000000000000000000000000000000000000000000000000000000000000000000000031
:400FC00000000000000000000000000000000000000000000000000000000000000000000000000000000000000000000000000000000000000000000000000000000000F1
:0200000490006A
:0400000000004005B7
:0200000490105A
:04000000BC90ACAF55
:0200000490303A
:02000000810E6F
:0200000490501A
:0C00000000011E06806903011E34017718
:0200000490402A
:4000000000000000000000000000000000000000000000000000000000000000000000000000000000000000000000000000000000000000000000000000000000000000C0
:00000001FF
