:40000000025396008F828E83E0540100000070F82278FFE4F6D8FD0253F4C0E0C0F0C083C082C085C084C086758600C093759300C0D075D000C000C001C002C003C004C02C
:4000400005C006C007A2AFE433FF900A3CEFF07F007E007D007C00900A3D121070D2AF9044F474FDF0126B3B8E1A8F1B854C1C854B4C054B854F4730030312682830043F00
:40008000E54F6548603785484F7D00AF481223CEE54864046005E548B4011690589A7402F090589B7402F090589CE4F090589DE4F07C007D1A7F1D125C6C1270D2C204E539
:4000C0004CC39550400302015FAF4C126E6DAF4C74962FF582E43409F583E0FFEF6401703FAF4C126E43E54F6401602C754F017D007F011223CE90589A7402F090589B74D2
:4001000002F090589CE4F090589DE4F07C007D1A7F1D125C6C1270D2854F48D2040203EC7F25126E43E54F6404602C754F047D007F041223CE90589A7402F090589B740221
:40014000F090589CE4F090589DE4F07C007D1A7F1D125C6C1270D2854F48D2040203ECE54CB55009755400125D180203ECE54CB55506125EDE0203ECE54CD39550400FE501
:400180004CC3955550080554125D180203ECE54C64FF60030203EC85464BE54E1210A601BB0001CB01021602026C0302C30402F80803430903980A000003EC1270D2125E9E
:4001C000DE854F47D202C2010203EC854F48E54F6401602C754F017D007F011223CE90589A7402F090589B7402F090589CE4F090589DE4F07C007D1A7F1D125C6C1270D219
:40020000D2041267DA905B037444F07E047F138E528F530203EC854F48E54F6401602C754F017D007F011223CE90589A7402F090589B7402F090589CE4F090589DE4F07C34
:40024000007D1A7F1D125C6C1270D2D2041267DA905B037424F0905895E0FFEF4410FFEFF07E047F068E528F530203EC854F48E54F6401602C754F017D007F011223CE90B1
:40028000589A7402F090589B7402F090589CE4F090589DE4F07C007D1A7F1D125C6C1270D2D2041267DA905B037404F0905B067402F0905A0A7402F07E047F0F8E528F536D
:4002C0000203EC854F48E54F64026016754F027D007F021223CE7C007D1A7F1D125C6C1270D2D2041267DA905B037444F07E047F158E528F530203EC854F48E54F6404609D
:400300002C754F047D007F041223CE90589A7402F090589B7402F090589CE4F090589DE4F07C007D1A7F1D125C6C1270D2D2041267DA905B037444F07E047FBF8E528F5326
:400340000203EC854F48E54F6404602C754F047D007F041223CE90589A7402F090589B7402F090589CE4F090589DE4F07C007D1A7F1D125C6C1270D2D2041267DA905B0307
:400380007424F0905895E0FFEF4410FFEFF07E047F088E528F538054854F48E54F6404602C754F047D007F041223CE90589A7402F090589B7402F090589CE4F090589DE4F8
:4003C000F07C007D1A7F1D125C6C1270D2D2041267DA905B037404F0905B067402F0905A0A7402F07E047F118E528F531273C8E51C64FF7003020600E547B40227E51CC333
:400400009555500BC3E4951BF51BE4951AF51A9009FCE0FEA3E0FFC3E51B9FF51BE51A9EF51A802DE547B401159009F6E0FEA3E0FFC3E51B9FF51BE51A9EF51A801390097F
:40044000FEE0FEA3E0FFC3E51B9FF51BE51A9EF51AE51CC3940C4003020616751500AF15EF25E02441F582E43405F583AF82AE838E168F177E067FFD8E188F19E51CC39535
:40048000505073AF1CEF75F005A424FDF582E43406F583AF82AE838E188F19AE18AF198F828E83E0FF8F15AF1CEFC43354E02441F582E43405F583C083C082AF15D082D08F
:4004C0008375F002EF12107CAF82AE838E168F17E515C3940F500EAF157E00EF2401FFEE3400FE80047E007F00AC18AD198D828C83EFF002057CE51CC39550407FE51CC3EF
:4005000095555078C3E51C9550FFEF75F005A42441F582E43406F583AF82AE838E188F19AE18AF198F828E83E0FF8F15C3E51C9550FFEFC43354E024C1F582E43404F5835D
:40054000C083C082AF15D082D08375F002EF12107CAF82AE838E168F17E515C3940F500EAF157E00EF2401FFEE3400FE80047E007F00AC18AD198D828C83EFF0AE18AF1924
:400580008F828E83A3121048900A3D121070900A3D121048C004C005C006C007AE16AF178F828E83E0FEA3E0FFAB07AA06EA3395E0F9F8D007D006D005D004120EB5900A96
:4005C0003D121070900A3D121064AE1AAF1BEE3395E0FDFC120EA8900A3D121070900A3D121048AA18AB198B828A83A3121070AE16AF178F828E83E51AF0A3E51BF08016A3
:40060000200211AE52AF538F828E83E51AF0A3E51BF08002C202200003020973E51CC3955540030209442009030207B2E51CC3955040030207197F017E007D007C00A91C09
:40064000A801121035EF553BFFEE553AFEED5539FDEC5538FCEC4D4E4F70030207B2E52230E054AF1CEF75F015A42456F582E43406F583121048900A3D121064D3120FFB10
:4006800040354333017F017E007D007C00A91CA801121035E5374FFFE5364EFEE5354DFDE5344CFC8F378E368D358C34906578E0FFEF4401FFEFF0E52220E1030207B2AF1D
:4006C0001CEF75F015A4245AF582E43406F583121048900A3D121064C3120FFB40030207B24333027F017E007D007C00A91CA801121035E53F4FFFE53E4EFEE53D4DFDE53C
:400700003C4CFC8F3F8E3E8D3D8C3C906578E0FFEF4401FFEFF00207B2C3E51C9550F51DAF1D74D02FF582E43408F583E0FF8F1D7F017E007D007C00E51D14F9A80112108B
:4007400035EF553BFFEE553AFEED5539FDEC5538FCEC4D4E4F605BE52230E256AF1DEF75F015A42449F582E43406F583121048900A3D121064D3120FFB40374333047F01E4
:400780007E007D007C00E51D14F9A801121035E5324FFFE5314EFEE5304DFDE52F4CFC8F328E318D308C2F906578E0FFEF4401FFEFF0200803020944E51CC3955040030273
:4007C00008A97F017E007D007C00A91CA801121035EF552AFFEE5529FEED5528FDEC5527FCEC4D4E4F7003020944E54030E056AF1CEF75F015A42418F582E43404F5831296
:400800001048900A3D121064D3120FFB40374345017F017E007D007C00A91CA801121035E5264FFFE5254EFEE5244DFDE5234CFC8F268E258D248C23906578E0FFEF4402BD
:40084000FFEFF0D201E54020E103020944AF1CEF75F015A4241CF582E43404F583121048900A3D121064C3120FFB40030209444345027F017E007D007C00A91CA8011210E3
:4008800035E52E4FFFE52D4EFEE52C4DFDE52B4CFC8F2E8E2D8D2C8C2B906578E0FFEF4402FFEFF0D201020944C3E51C9550F51DAF1D74D02FF582E43408F583E0FF8F1D94
:4008C0007F017E007D007C00E51D14F9A801121035EF552AFFEE5529FEED5528FDEC5527FCEC4D4E4F605DE54030E258AF1DEF75F015A4240BF582E43404F5831210489021
:400900000A3D121064D3120FFB40394345047F017E007D007C00E51D14F9A801121035E5444FFFE5434EFEE5424DFDE5414CFC8F448E438D428C41906578E0FFEF4402FF66
:40094000EFF0D201E51CB40B05300102C201AF4D7E00EF24FFFFEE34FFFEAD1C7C00EF6D7002EE6C703A906578E0FFEF6404FFEFF0802DAF4D7E00EF24FFFFEE34FFFEADC4
:400980001C7C00EFB50519EEB50415E54A6002154A900975E0FFEFB40106E54A7002D200900A3CE0FFEF24FF92AFD007D006D005D004D003D002D001D000D0D0D093D0862A
:4009C000D084D085D082D083D0F0D0E032020D9FE86480F8E933E83360110460F0ED33EC337009E8FCE9FDEAFEEBFF220460DED3EB9FEA9EE99DE8C2E78CF0C2F795F040EB
:400A00000CE8CCF8E9CDF9EACEFAEBCFFB120D6A85D0F05804700320D5B3E80470075002B2D5020DA992D5EC0460F7E4CCC0E0C398F8603B94186008400DD0E0FB020D8127
:400A4000E4FBFAC9FC8028E830E406E4C9FBE4CAFCE830E305E4C9CACBFCE854076010F8C3E913F9EA13FAEB13FBEC13FCD8F130F52FC3E49CFCEF9BFFEE9AFEED99FDD092
:400A8000E0FBEF4E4D4C701222DB03020DA6EC2CFCEF33FFEE33FEED33FDED30E7EB020D81EF2BFFEE3AFEED39FDD0E0FB50130BBB0003020DA9ED13FDEE13FEEF13FFEC84
:400AC00013FC020D81EC4D6011E8497017ED33EC3304600DE4FCFFFEFD22E933E8330470F8020D9F120D6A58046009E4CC24815006285009020DA9284003020DA6C0E0EB1B
:400B00004A7044B98006D0E0FB020D95EF4E701CBD8008EBFFEAFEE9FD80EBE98DF0A4FEE5F0020BAEE9CDF9EAFEEBFFEF89F0A4FCE5F0CE89F0A42EFFE435F0CD89F0A4F7
:400B40002DFEE435F08067EF4E7005BD80D780C3EF8BF0A4ACF0EE8BF0A42CFCE435F0F8EF8AF0A42CE5F038FCE433CB8DF0A42CFCE5F03BF8EE8AF0A42CFCE5F038F8E4DF
:400B800033CF89F0A42CFCE5F038CF3400CE89F0A42FFFE5F03EFEE433C98DF0A42EFEE5F039CD8AF0A42FFFE5F03EFEE43DFD33D0E0FB50070BBB000F020DA9EC2CFCEF6C
:400BC00033FFEE33FEED33FD020D81020DA9EC5D046005E859047003020D9F120D6A580460F6EC4860F2EC7004FDFEFF22C860DB2481C85009C39860025006020DA6985071
:400C0000CAF582E9294B4A7005AB82020D9575F0007C1A7880C3EF9BEE9AED99400DC3EF9BFFEE9AFEED99FDE842F0DC23ACF0D0E0FFD0E0FED0E0FDAB8220E7101BEB602D
:400C4000BAEC2CFCEF33FFEE33FEED33FD020D81E803F830E705C0F075F000EF2FFFEE33FEED33FD40B830E7C280AA74F8CC6480CCC86480C8F58204604FC3EB9FF5F0EAAF
:400C80009E42F0E99D42F0E89C45F0603C501DE5825FFFE582D313CB5BCBF42B5582FB50280ABA002409B9002008801DE5825BFBE582D313CF5FCFF4C3132F5582FF5009E0
:400CC0000EBE00050DBD00010CC3EB9FF5F0EA9E42F0E99D42F0E89C45F06007CC4820E701B3EC22ED33EC33600A047003BD8004ECB2E7FC2275F020800E75F01080057525
:400D0000F0087D007E007F003392D530D503120FEDEC334010EF33FFEE33FEED33FDEC33FCD5F0ED22E5F0247EA2D513CC92E7CDCEFF22EDD2E7CD33EC3392D524814006BD
:400D4000E4FFFEFDFC22FCE4CFCECDCC24E0501174FF80EDC3CC13CCCD13CDCE13CECF13CF0470F030D5DE020FEDE9D2E7C933E833F892D5EDD2E7CD33EC33FC5002B2D5AA
:400D800022EC30E7100FBF000C0EBE00080DBD00040BEB6014A2D5EB13FCED92E7FD2274FFFCFDFEFF22E480F8A2D574FF13FC7D80E480EFBB010689828A83E0225002E7DD
:400DC00022BBFE02E32289828A83E49322BB010689828A83F0225002F722BBFE01F322EF8DF0A4A8F0CF8CF0A428CE8DF0A42EFE22BC000BBE0029EF8DF084FFADF022E4FE
:400E0000CCF875F008EF2FFFEE33FEEC33FCEE9DEC984005FCEE9DFE0FD5F0E9E4CEFD22EDF8F5F0EE8420D21CFEADF075F008EF2FFFED33FD4007985006D5F0F222C398CE
:400E4000FD0FD5F0EA22C2D5EC30E709B2D5E4C39DFDE49CFCEE30E715B2D5E4C39FFFE49EFE120DF1C3E49DFDE49CFC8003120DF130D507C3E49FFFE49EFE22C5F0F8A3A5
:400E8000E028F0C5F0F8E582158270021583E038F022A3F8E0C5F025F0F0E582158270021583E0C838F0E822EF2BFFEE3AFEED39FDEC38FC22C3EF9BFFEE9AFEED99FDEC5F
:400EC00098FC22E88FF0A4CC8BF0A42CFCE98EF0A42CFC8AF0EDA42CFCEA8EF0A4CDA8F08BF0A42DCC3825F0FDE98FF0A42CCD35F0FCEB8EF0A4FEA9F0EB8FF0A4CFC5F089
:400F00002ECD39FEE43CFCEAA42DCE35F0FDE43CFC2275F008758200EF2FFFEE33FECD33CDCC33CCC58233C5829BED9AEC99E58298400CF582EE9BFEED9AFDEC99FC0FD5A8
:400F4000F0D6E4CEFBE4CDFAE4CCF9A88222B800C1B90059BA002DEC8BF084CFCECDFCE5F0CBF97818EF2FFFEE33FEED33FDEC33FCEB33FB10D703994004EB99FB0FD8E5D3
:400F8000E4F9FA227818EF2FFFEE33FEED33FDEC33FCC933C910D7059BE99A4007EC9BFCE99AF90FD8E0E4C9FAE4CCFB2275F010EF2FFFEE33FEED33FDCC33CCC833C81078
:400FC000D7079BEC9AE899400AED9BFDEC9AFCE899F80FD5F0DAE4CDFBE4CCFAE4C8F922EF4BFFEE4AFEED49FDEC48FC22C3E49FFFE49EFEE49DFDE49CFC22EB9FF5F0EAAE
:401000009E42F0E99D42F0EC6480C864809845F022EB9FF5F0EA9E42F0E99D42F0E89C45F022E8600FECC313FCED13FDEE13FEEF13FFD8F122E8600FEFC333FFEE33FEEDBD
:4010400033FDEC33FCD8F122E0FCA3E0FDA3E0FEA3E0FF22E493FC740193FD740293FE740393FF22E0F8A3E0F9A3E0FAA3E0FB22ECF0A3EDF0A3EEF0A3EFF022A42582F5DD
:4010800082E5F03583F58322E0FBA3E0FAA3E0F922EBF0A3EAF0A3E9F022E493FB740193FA740293F922D083D082F8E4937012740193700DA3A393F8740193F5828883E4A9
:4010C000737402936860EFA3A3A380DFE51F2582F582E51E3583F583B51E0485821F2210AF0685821FF51E2285821FF51ED2AF22E51F2582F582E51E3583F58322EC8EF024
:40110000A4CCC5F0CCCDF8EFA4CEC5F02DFDE43CFCE8A42EC8C5F03DFDE43CFCEFA4FFE5F028FEE43DFDE43CFC22E709F608DFFA8046E709F208DFFA803E88828C83E70910
:40114000F0A3DFFA8032E309F608DFFA806EE309F208DFFA806688828C83E309F0A3DFFA805A89828A83E0A3F608DFFA804E89828A83E0A3F208DFFA804280D280FA80C62E
:4011800080D4805580F28029801080A680EA809A80A880DA80E280CA802988848C8589828A83E493A30586F0A30586DFF5DEF3800B89828A83E493A3F608DFF9ECFAA9F02B
:4011C000EDFB2288848C8589828A83E0A30586F0A30586DFF6DEF480E389828A83E493A3F208DFF980D688F0EF60010E4E60CD88F0ED2402B4040050C3F582EB2402B40439
:401200000050B9232345822390117A73900A08E4F0900A09E4F0900A0AE4F0A3E4F0900A0CE4F0A3E4F0900A0EE4F0D2AF9044F474FDF0900806E4F0900804E4F0A3E4F09B
:4012400012710B1273231263141274A2900A0EEFF0900A0EE0FFEF5403FFEF60F47F1012738D1270EF1272FD1271BC127310900A08E4F0900A08E0FFEFC394075064900AF8
:4012800009E4F0900A09E0FFEFC39410504C900A09E0FF900A08E0FEEEC454F02473F582E4343EF583E5822FF582E43583F583E493FF900A09E0FE900A08E0FD75F011ED0F
:4012C00090083212107CE5822EF582E43583F583EFF0900A09E004F080A9900A08E004F08091900A08E4F0900A08E0FFEFC394075037900A08E0FFEF25E024CBF582E434A2
:401300003DF583E493FE740193FF12608A900A08E0FD75F002ED90077712107CEEF0A3EFF0900A08E004F080BE900A08E4F0900A08E0FFEFC394075037900A08E0FFEF258D
:40134000E024D9F582E4343DF583E493FE740193FF12608A900A08E0FD75F002ED90078512107CEEF0A3EFF0900A08E004F080BE900A08E4F0900A08E0FFEFC39407503768
:40138000900A08E0FFEF25E024E7F582E4343DF583E493FE740193FF12608A900A08E0FD75F002ED90079312107CEEF0A3EFF0900A08E004F080BE900A08E4F0900A08E04A
:4013C000FFEFC394075037900A08E0FFEF25E024F5F582E4343DF583E493FE740193FF12608A900A08E0FD75F002ED9007A112107CEEF0A3EFF0900A08E004F080BE900A79
:4014000008E4F0900A08E0FFEFC394075035900A08E0FFEF25E025E02403F582E4343EF583121054123EE3900A08E0FD75F002ED9007AF12107CEEF0A3EFF0900A08E00451
:40144000F080C0900A08E4F0900A08E0FFEFC394075035900A08E0FFEF25E025E0241FF582E4343EF583121054123EE3900A08E0FD75F002ED9007BD12107CEEF0A3EFF0A3
:40148000900A08E004F080C0900A08E4F0900A08E0FFEFC394075037900A08E0FFEF25E0243BF582E4343EF583E493FE740193FF12608A900A08E0FD75F002ED9007CB12D3
:4014C000107CEEF0A3EFF0900A08E004F080BE900A08E4F0900A08E0FFEFC394075037900A08E0FFEF25E02449F582E4343EF583E493FE740193FF12608A900A08E0FD75EE
:40150000F002ED9007D912107CEEF0A3EFF0900A08E004F080BE900A08E4F0900A08E0FFEFC394075037900A08E0FFEF25E02457F582E4343EF583E493FE740193FF1260BC
:401540008A900A08E0FD75F002ED9007E712107CEEF0A3EFF0900A08E004F080BE900A08E4F0900A08E0FFEFC394075037900A08E0FFEF25E02465F582E4343EF583E49359
:40158000FE740193FF12608A900A08E0FD75F002ED9007F512107CEEF0A3EFF0900A08E004F080BE9008317422F012725712728112724212733612726C900B2CE0FFEFD311
:4015C000940340F5900B2CE4F0126A537F0C12701D7BFF7A3D792612672D123B547BFF7A3D793612672D900A08E4F0900A08E0FFEFC39407400302168F7F0A124C96900AA9
:4016000008E0FF7E11EF8EF0A4FFAEF074322FF974083EFA7B017D107C00126678900A08E0FF75F002EF90080712107CE0FEA3E0FF12638B124FD27BFF7A3D794A12672D4E
:40164000900A08E0FF75F002EF90081512107CE0FEA3E0FF12638B124FD27BFF7A3D795112672D900A08E0FF75F002EF90082312107CE0FEA3E0FF12638B124FD27BFF7A5D
:401680003D795912672D900A08E004F00215EB7F0A124C967BFF7A3D795F12672D1274961265B87BFF7A3D796B12672D1274841265B87F0A124C967BFF7A3D798112672D44
:4016C00012748A1265B87BFF7A3D799212672D1274A21265B87F0A124C967BFF7A3D79A312672D127490EF541FFF1265B87BFF7A3D79B212672D12749C1265B87F0A124C22
:40170000967BFF7A3D79C112672D1274A81265B80215B92290FFFF1210CCEFF090FFFA1210CC9044CB7420F0854B46754BFF9009BEE0FF8F4E9044C37420F0E54B64FF60C8
:40174000FAE54C64FF60F49009BEE0FFEF1210A6177201179702182B0318BA0418DF05196E061A46071A6D081A92091B260A00001BB27A097BA6900413E0FCA3E0FD9000C1
:40178000061210F0E0FF124A4C120D339009F6EEF0A3EFF0021BB27A097BF8900406E0FCA3E0FD9000061210F0E0FF124A4C120D33851E83851F82EEF0A3EFF0851E8385B6
:4017C0001F82E0FEA3E0FFC3E49FFFE49EFE851E83851F82EEF0A3EFF0851E83851F82C083C082E0FEA3E0FF9009F6E0FCA3E0FDC3EF9DFFEE9CFED082D083EEF0A3EFF080
:40180000851E83851F82E0FCA3E0FDEC120CFAA804A905AA06AB077F007E007D807C44120BCE9009C0121070021BB27A097BB290040FE0FCA3E0FD9000061210F0E0FF1299
:401840004A4C120D33851E83851F82EEF0A3EFF0851E83851F82E0FEA3E0FFC3E49FFFE49EFE851E83851F82EEF0A3EFF0851E83851F82C083C082E0FEA3E0FF9009F6E017
:40188000FCA3E0FDC3EF9DFFEE9CFED082D083EEF0A3EFF0851E83851F82E0FCA3E0FDEC120CFA9009C0121064120AC5120D339009B6EEF0A3EFF0021BB27A097BAA900459
:4018C00015E0FCA3E0FD9000061210F0E0FF124A4C120D339009FCEEF0A3EFF0021BB29009F4E0FEA3E0FF9009BFE0FDED25E024CCF582E43409F583E0FCA3E0FDC3EF9D73
:40190000FFEE9CFE9009F4EEF0A3EFF0900725E0FEA3E0FF9009F4EE8FF0120E7C900725E0FEA3E0FF9009BFE0FDED25E024CCF582E43409F583EEF0A3EFF09009BFE004A2
:40194000FFF0EFC394105003021BB29009F4E0FEA3E0FF7C007D04120E46EE3395E0FDFC9009EC1210709009BFE4F0021BB29009EC121048EC120CF57B007A00798078407B
:40198000120BCE900A04121070900A04121048C004C005C006C0079009FEE0FCA3E0FDEC120CFAA804A905AA06AB07D007D006D005D0041209D0900A04121070900A04121A
:4019C00010489009C8121064120AC5900A041210707A097BF0900727E0FCA3E0FD9000061210F0E0FF124A4C120D33851E83851F82EEF0A3EFF0851E83851F82C083C08291
:401A0000E0FEA3E0FF9009FCE0FCA3E0FDC3EF9DFFEE9CFED082D083EEF0A3EFF0851E83851F82E0FCA3E0FDEC120CFAA804A905AA06AB07900A04121048120BCE9009C4C2
:401A4000121070021BB27F007E007D007C3D851E83851F82A3A3121070851E83851F82A3A31210489009C4121070021BB27A097BAE9004BFE0FCA3E0FD9000061210F0E011
:401A8000FF124A4C120D339009FEEEF0A3EFF0021BB27A0A7B00900408E0FCA3E0FD9000061210F0E0FF124A4C120D33851E83851F82EEF0A3EFF0851E83851F82E0FEA376
:401AC000E0FFC3E49FFFE49EFE851E83851F82EEF0A3EFF0851E83851F82C083C082E0FEA3E0FF9009FEE0FCA3E0FDC3EF9DFFEE9CFED082D083EEF0A3EFF0851E83851FCD
:401B000082E0FCA3E0FDEC120CFAA804A905AA06AB077F007E007D807C44120BCE9009C8121070021BB27A097BB8900411E0FCA3E0FD9000061210F0E0FF124A4C120D3368
:401B4000851E83851F82EEF0A3EFF0851E83851F82E0FEA3E0FFC3E49FFFE49EFE851E83851F82EEF0A3EFF0851E83851F82C083C082E0FEA3E0FF9009FEE0FCA3E0FDC3B5
:401B8000EF9DFFEE9CFED082D083EEF0A3EFF0851E83851F82E0FCA3E0FDEC120CFA9009C8121064120AC5120D339009BCEEF0A3EFF09000071210CC22C0E0C0F0C083C098
:401BC00082C085C084C086758600C093759300C0D075D000C000C001C002C003C004C005C006C007900804E0FEA3E0FFEE5410FE7F00900804EEF0A3EFF07F0112555E90B1
:401C00000AFEEEF0A3EFF0900AFEE0FEA3E0FF12608A900815EEF0A3EFF09007A1E0FEA3E0FF12638B900B00EEF0A3EFF012749CEF5401FF900AF2EFF0900AF2E0FFEFB4CA
:401C4000012E900B00E0FEA3E0FF900AFEE0FCA3E0FDC3ED9FEC9E5017900AF27401F012749C900AF2E0FEEEF4FEEF5EFF12738D900793E0FEA3E0FF12638B900B00EEF048
:401C8000A3EFF0900AF2E0FFEF7021900B00E0FEA3E0FF900AFEE0FCA3E0FDD3ED9FEC9E400A12749CEF4401FF12738D7F00123147900B00EEF0A3EFF0900B00E0FEA3E02E
:401CC000FFEFB42029EEB48025900AF27401F0900AF2E0FFEFF4FFEF547FFF900AF2EFF012749C900AF2E0FEEF5EFF12738D7F0312555E900AFEEEF0A3EFF0900AFEE0FEA9
:401D0000A3E0FF12608A900807EEF0A3EFF07F001233687F031250D0900AEE121070900AFEE0FEA3E0FFC3EF9498EE9408500E7F007E007D007C00900AEE121070900AEED6
:401D4000121048123EE3900823EEF0A3EFF07F00124B737F0212555E900AFEEEF0A3EFF0900AFEE0FEA3E0FF12608A900817EEF0A3EFF07F011233687F021250D0900AEEB3
:401D8000121070900AFEE0FEA3E0FFC3EF9498EE9408500E7F007E007D007C00900AEE121070900AEE121048123EE3900825EEF0A3EFF07F01124B737F0412555E900AFE51
:401DC000EEF0A3EFF0900AFEE0FEA3E0FF12608A90080BEEF0A3EFF07F021233687F041250D0900AEE121070900AFEE0FEA3E0FFC3EF9498EE9408500E7F007E007D007CDB
:401E000000900AEE121070900AEE121048123EE3900827EEF0A3EFF07F02124B739007C1E0FEA3E0FF124083900AF8121070900AF8121048900AEE121064120C6B601C40F3
:401E40001A900AF27402F012749C900AF2E0FEEE547FFEEF4EFF12738D801B900AF27402F012749C900AF2E0FEEEF4FEEE547FFEEF5EFF12738D7F0512555E900AFEEEF0E8
:401E8000A3EFF0900AFEE0FEA3E0FF12608A90081BEEF0A3EFF07F031231477F051250D0900AEE121070900AFEE0FEA3E0FFC3EF9498EE9408500E7F007E007D007C009079
:401EC0000AEE121070900AEE121048123EE3900829EEF0A3EFF07F03124B737F0612555E900AFEEEF0A3EFF0900AFEE0FEA3E0FF12608A90081DEEF0A3EFF090079BE0FE65
:401F0000A3E0FF12638B900B00EEF0A3EFF030063BC206900B00E0FEA3E0FF900AFEE0FCA3E0FDC3ED9FEC9E5022900B2DE4F0900804E0FEA3E0FFEE4480FEEF4401FF90A6
:401F40000804EEF0A3EFF090647EE4F09007A9E0FEA3E0FF12638B900B00EEF0A3EFF0900B00E0FEA3E0FF900AFEE0FCA3E0FDC3ED9FEC9E501D900804E0FEA3E0FFEE44B1
:401F800080FEEF4401FF900804EEF0A3EFF090647EE4F07F0812555E900AFEEEF0A3EFF0900AFEE0FEA3E0FF12608A900821EEF0A3EFF07F061231477F0712555E900AFEEB
:401FC000EEF0A3EFF0900AFEE0FEA3E0FF12608A90081FEEF0A3EFF07F0512314712749CEF6480FFEF547FFF12738DD007D006D005D004D003D002D001D000D0D0D093D032
:4020000086D084D085D082D083D0F0D0E032900A4DEFF0900B10E4F0900B18E0FFEF70519058967407F0905897E4F090589EE4F0905B07E0FFEF4418FFEFF0905893E4F0C4
:40204000905B88E4F0905B89E4F0905880740AF0905881E4F0905882747AF0905883E4F090588DE4F0904E017414F0904E147401F0900A4DE0FFEF64016003022148904E7A
:40208000007430F0904E027406F0904E037409F0904E04E4F0904E05E4F0904E06741FF0904E08E4F0904E09E4F0904E0AE4F09058847414F0905885740BF0905886741934
:4020C000F0905887E4F09058887412F09058897413F090588A7444F090588B7448F090588C7402F090588E7401F090588F7411F09058907419F09058917497F07F4412695E
:40210000929058947458F0905895E4F090589A7401F090589B7401F090589C7401F090589D740AF07FE87E037D007C00900B131210707D077F1D12629B7C6D7D677F1D120E
:402140005C6C9044C37420F0900A4DE0FFEF6402600302221F904E007430F0904E027406F0904E037409F0904E04E4F0904E05E4F0904E06741FF0904E08E4F0904E09E458
:40218000F0904E0AE4F09058847414F09058857439F09058867404F0905887E4F09058887412F09058897413F090588A7444F090588B7442F090588C7410F090588E740198
:4021C000F090588F7411F09058907419F09058917497F07F441269929058947458F0905895E4F090589A7401F090589B7401F090589C7401F090589D740AF07F007E7D7D9F
:40220000007C00900B131210707D077F1D12629B7C747DD27F1D125C6C9044C37420F0900A4DE0FFEF640360030222F6904E007430F0904E027406F0904E037409F0904E62
:4022400004E4F0904E05E4F0904E06741FF0904E08E4F0904E09E4F0904E0AE4F09058847414F09058857423F09058867405F0905887E4F09058887412F09058897413F077
:4022800090588A7444F090588B7444F090588C7410F090588E7401F090588F7411F09058907419F09058917497F07F441269929058947458F0905895E4F090589A7401F091
:4022C00090589B7401F090589C7401F090589D740AF07F807E3E7D007C00900B131210707D077F1D12629B7C747DD37F1D125C6C9044C37420F0900A4DE0FFEF64046003A6
:402300000223CD904E007430F0904E027406F0904E037409F0904E04E4F0904E05E4F0904E06741FF0904E08E4F0904E09E4F0904E0AE4F09058847414F09058857409F0DE
:40234000905886740AF0905887E4F09058887412F09058897413F090588A7455F090588B745AF090588C7405F090588E7401F090588F7411F09058907419F09058917497F7
:40238000F07F441269929058947458F0905895E4F090589A7401F090589B7401F090589C7401F090589D740AF07FD07E077D007C00900B131210707D077F1D12629B7C74FD
:4023C0007DD47F1D125C6C9044C37420F022900A41EFF0900A42EDF0900A43E4F0900A447410F0900A45E4F0A3E4F0900A47E4F0A37401F0900A49E4F0A37401F0900A4BD8
:40240000E4F0A3E4F0900A41E0FFEFD3940440030226CF900B18E0FFEF7006900B117401F0900A41E0FF900B17EFF012563B900A41E0FF12200E900A41E0FFEF64016003A2
:402440000224C4900A437405F0900A44740CF0900A457492F0A374D2F0900A4B7480F0A3E4F07F007E367D6E7C01C004C005C006C0077F307EFD7D137C00900A511210708C
:40248000D007D006D005D004126222900A47EEF0A3EFF07F007E367D6E7C01C004C005C006C0077FC07EF47D4F7C00900A51121070D007D006D005D004126222900A49EE0B
:4024C000F0A3EFF0900A41E0FFEF64026003022552900A43740AF0900A44740CF0900A45748FF0A374D2F0900A4B7480F0A3E4F07F007E367D6E7C01C004C005C006C0074A
:402500007F307EFD7D137C00900A51121070D007D006D005D004126222900A47EEF0A3EFF07F007E367D6E7C01C004C005C006C0077FC07EF47D4F7C00900A51121070D0C4
:4025400007D006D005D004126222900A49EEF0A3EFF0900A41E0FFEF640360030225E0900A437409F0900A44740CF0900A457491F0A3749DF0900A4B7480F0A3E4F07F00B3
:402580007E367D6E7C01C004C005C006C0077F307EFD7D137C00900A51121070D007D006D005D004126222900A47EEF0A3EFF07F007E367D6E7C01C004C005C006C0077FD9
:4025C000C07EF47D4F7C00900A51121070D007D006D005D004126222900A49EEF0A3EFF0900A41E0FFEF6404600302266E900A437404F0900A44740CF0900A45748DF0A3A5
:4026000074B6F0900A4B7480F0A3E4F07F007E367D6E7C01C004C005C006C0077F307EFD7D137C00900A51121070D007D006D005D004126222900A47EEF0A3EFF07F007EB2
:40264000367D6E7C01C004C005C006C0077FC07EF47D4F7C00900A51121070D007D006D005D004126222900A49EEF0A3EFF0900A4774FF75F0FF120E7C900A47E0FEA3E06B
:40268000FF7D01124500900A4974FF75F0FF120E7C900A49E0FEA3E0FF7D0112438B900A43E0FF900A45E0FCA3E0FD900A4BE0FAA3E0FB900A44E0FE900A52EEF0123589C5
:4026C000900A42E0FFEFB401061270D21273C822C0E0C0F0C083C082C085C084C086758600C093759300C0D075D000C000C001C002C003C004C005C006C00790646CE0FF88
:40270000900A5CEFF0900A5CE0FFEF30E535900B47E0FFEF6411702B90648CE0FFEF54DFFFEFF0900B477410F0900B40E4F0900B41E0FFEF70051252AB8008900B41E0FF21
:40274000127174900A5CE0FFEF20E0030229A5900A5CE0FFEF20E303022868906508E0FF900A5DEFF0900A5DE0FFEF54FEFF7E0090072AE0FD7C00EF6D7002EE6C600890EF
:402780000A5DE0FFEF706C900A5DE0FFEF5401FF7E00EF4E6039900B40E0FFEF600A126A90900B41EFF08006900B417401F0900B41E0FFEF601190650874FFF0906478749F
:4027C0000DF0906558E4F0900B477412F0801C90648CE0FFEF4420FFEFF09064787409F0906558E4F0900B477411F0900A67E4F00229A590647EE0FFEF705F9008ADE0FF0E
:40280000900A5DE0FEEE6F705190072AE0FF906508EFF0906478740DF0906558E4F090072AE0FF900A68EFF0900AA97401F09008AEE0FFEF1210A628410128490200002821
:402840004C90647E7401F08003126AFF900B477412F0900A67E4F00229A59064787419F0906558E4F00229A5900B47E0FFEF6411707E906508E0FF900A5DEFF0900B40E0E0
:40288000FFEF7015900A5DE0FF124EC8900B41EFF0900B407401F08033900AA9E0FF900A67E0FEEEC39F5018900A5DE0FF900A67E0FE74682EF582E4340AF583EFF080060B
:4028C000900B417404F0900A67E004F0900B41E0FFEF700E9064787409F0906558E4F00229A59064787419F0906558E4F00229A5900B47E0FFEF6412600302299A900A5CAF
:40290000E0FFEF20E156900B41E0FFEF703B900A67E004F0900AA9E0FF900A67E0FEEEC39F5018900A67E0FF74682FF582E4340AF583E0FF906508EFF0801490650874FFD4
:40294000F0900B417402F0800690650874FFF0906478740DF0906558E4F0804990650874FFF0906478741DF0906558E4F090648CE0FFEF54DFFFEFF0900B477410F0900BBA
:4029800040E4F0900B41E0FFEF601A900B41E0FF127174900B41E4F0800B9064787419F0906558E4F0D007D006D005D004D003D002D001D000D0D0D093D086D084D085D07A
:4029C00082D083D0F0D0E0327B007A4679E81273E0EF4405FD7B007A4679E81273EC751400E514C39405503AAF14EF75F005A42457F582E43477F583AF82AE838E088F096C
:402A0000AE08AF098F828E8312109AAE08AF098F828E83740393FC740493FD12715B051480BF751400E514C394025078AF14EF75F008A42470F582E43477F583AF82AE839C
:402A40008E0A8F0BAE0AAF0B8F828E8312109A8B0C8A0D890EAE0AAF0B8F828E83A3A3A312109A8B0F8A108911AE0AAF0B8F828E83740693F512740793F513AB0FAA10A92D
:402A800011C003C002C001AB0CAA0DA90E900A12121091D001D002D003AF13AE12126BE6051480817B087A007900126D95905883740AF07B017A5079031273E0EF4402FD0A
:402AC0007B017A5079031273EC7B017A5079131273E0EF4402FD7B017A5079131273EC9043A0E0FFEF4440FF9043A0EFF09043C2E0FFEF4410FF9043C2EFF07B087A0B7936
:402B000008C003C002C0017B007A517902900A12121091D001D002D0037F087E00126BE67B087A0B7910C003C002C0017B007A5179C0900A12121091D001D002D0037F0A95
:402B40007E00126BE67B087A0B791CC003C002C0017B007A5179F2900A12121091D001D002D0037F087E00126BE67B087A0B7924C003C002C0017B007A517912900A121229
:402B80001091D001D002D0037F087E00126BE67B087A0B792CC003C002C0017B007A517922900A12121091D001D002D0037F087E00126BE67B087A0B7934C003C002C0018A
:402BC0007B007A517932900A12121091D001D002D0037F087E00126BE67B087A0B793CC003C002C0017B007A517942900A12121091D001D002D0037F087E00126BE67B08E3
:402C00007A0B7944C003C002C0017B007A517950900A12121091D001D002D0037F0A7E00126BE67B087A0B7950C003C002C0017B007A517960900A12121091D001D002D0B6
:402C4000037F0A7E00126BE67B017A0A79DB7D841273EC9044F47401F0904322E0FFEF4408FF904322EFF09046ECE0FFEFC394055006904689743AF090480074F1F0124252
:402C80000790480074B1F01264DF7B007A4379A0C003C002C0017B007A4379B0900A12121091D001D002D0037F0E7E00126BE69043B0E0FFEF54FDFFEFF022410B48004218
:402CC0000B2F0000410B2900410B2D00410B2E00420B2A0000410B2C00C106C107C1054109540041097500013300014500042F00000000043C000000000434000000000468
:402D00004100000000042B0000000004230000000048099600000000000000005009862A302A302A302AF81B580A8C0C3F0C3F500976313831383138384031380CE40D89F6
:402D40000D8950092425802580258023F0177009C40BDC0BDC50091432C832C832C839D032C80D480DEC0DEC602008B03D8000003D8000003D8000003D8000003D8000008E
:402D80003E8000003E8000003E80000048099E000202020200000060200934411000004000000042A000003F80000041100000411000004110000041100000602008D44112
:402DC0004000004020000042C8000042A80000414000004140000041400000414000006020095540A0000040C000003E8000003E8000003F00000040A0000040A0000040C2
:402E0000A00000602008F44120000042E100004284999A4284999A42D800004120000041200000412000004408D002030405410729004108AF00410B3B00420B3C120342C9
:402E40000AF40000410AF200420AFC0000410AF700420AFE0000420B000000440AEE00000000440AF800000000410AF300410AF600410405004200010000420403000041DE
:402E80000B4900015400014FFF0147FFC103C104025200004109BF00410B4000410B4100410AAA00410B1200410B1000410B1800410B1100410B1701440B19000000004454
:402EC0000B13000003E8410B4200410B43FF410B4A00410B4400410B45FF410B4600440B07016E3600440B0200005DC0410B0618440B0C2EE00000450B3100089C3F014381
:402F00000B36000000410B4B000090FFFC1210CC12107090FFF81210CC9000081210F0121048851E83851F821210707F007E007D007C009000041210F012107090000D126A
:402F400010F0121088E4120DCD90000C1210F0E0FFEFD39400500302313490000C1210F0E0FFEFD39408400302313490000C1210F0E0FF749D2FF582E43409F583E0FFEFFA
:402F8000700302313490000C1210F0E0FF749D2FF582E43409F583E0FFEF64026003023088851E83851F82C083C082121048C004C005C006C00790000C1210F0E0FFEF2517
:402FC000E025E02451F582E43409F58312104890000C1210F0E0FBEB25E025E024F0F582E43408F583121064120AC5A804A905AA06AB07D007D006D005D004120AC5D082B0
:40300000D0831210707F007E007D007C45851E83851F82121064120C6B600540030230FB90000D1210F01210887401120DCD851E83851F82C083C082121048C004C005C002
:4030400006C0079009BCE0FCA3E0FDEC120CFAA804A905AA06AB07D007D006D005D0041209D0D082D083121070851E83851F82C083C0821210489009C8121064120BCED0BD
:4030800082D0831210708073851E83851F82C083C08212104890000C1210F0E0FBEB25E025E02451F582E43409F583121064120AC5D082D0831210707F007E007D807C4222
:4030C000851E83851F82121064120C6B6002502B90000D1210F01210887401120DCD851E83851F82C083C0821210489009C4121064120BCED082D08312107090000D1210DF
:40310000F0121088120DB4FFEFB401287F007E007D807C41851E83851F82121064120AC57B007A007900783F1209D49000041210F01210709000041210F0121048120D333F
:403140009000101210CC22900A24EFF0900A25E4F0A3E4F0900A27E4F0A3E4F0900A29E4F0A3E4F0900A24E0FF75F002EF90081512107CE0FEA3E0FF12638B900A25EEF0A3
:40318000A3EFF0900A24E0FF75F002EF90077712107CE0FEA3E0FF12638B900A27EEF0A3EFF0900A27E0FEA3E0FF900A25E0FCA3E0FDD3ED9FEC9E4041900A27E0FEA3E0A5
:4031C000FFEF4E6035900804E0FEA3E0FFEE4480FEEF4420FF900804EEF0A3EFF0900A29E0FEA3E0FFEE4480FEEF4420FF900A29EEF0A3EFF090647EE4F0900A24E0FF7564
:40320000F002EF90078512107CE0FEA3E0FF12638B900A27EEF0A3EFF0900A27E0FEA3E0FF900A25E0FCA3E0FDD3ED9FEC9E4041900A27E0FEA3E0FFEF4E6035900804E05D
:40324000FEA3E0FFEE4480FEEF4401FF900804EEF0A3EFF0900A29E0FEA3E0FFEE4480FEEF4401FF900A29EEF0A3EFF090647EE4F0900A24E0FF75F002EF9007A112107CB7
:40328000E0FEA3E0FF12638B900A27EEF0A3EFF0900A27E0FEA3E0FF900A25E0FCA3E0FDC3ED9FEC9E5041900A27E0FEA3E0FFEF4E6035900804E0FEA3E0FFEE4480FEEF59
:4032C0004401FF900804EEF0A3EFF0900A29E0FEA3E0FFEE4480FEEF4401FF900A29EEF0A3EFF090647EE4F0900A24E0FF75F002EF90079312107CE0FEA3E0FF12638B9074
:403300000A27EEF0A3EFF0900A27E0FEA3E0FF900A25E0FCA3E0FDC3ED9FEC9E5041900A27E0FEA3E0FFEF4E6035900804E0FEA3E0FFEE4480FEEF4401FF900804EEF0A367
:40334000EFF0900A29E0FEA3E0FFEE4480FEEF4401FF900A29EEF0A3EFF090647EE4F0900A29E0FEA3E0FF22900A24EFF0900A25E4F0A3E4F0900A27E4F0A3E4F0900A2944
:40338000E4F0A3E4F0900A24E0FF75F002EF90080712107CE0FEA3E0FF12638B900A25EEF0A3EFF0900A24E0FF75F002EF9007CB12107CE0FEA3E0FF12638B900A27EEF021
:4033C000A3EFF0900A27E0FEA3E0FF900A25E0FCA3E0FDD3ED9FEC9E4041900A27E0FEA3E0FFEF4E6035900804E0FEA3E0FFEE4420FEEF4401FF900804EEF0A3EFF0900A9D
:4034000029E0FEA3E0FFEE4420FEEF4401FF900A29EEF0A3EFF090647EE4F0900A24E0FF75F002EF9007D912107CE0FEA3E0FF12638B900A27EEF0A3EFF0900A27E0FEA353
:40344000E0FF900A25E0FCA3E0FDD3ED9FEC9E4041900A27E0FEA3E0FFEF4E6035900804E0FEA3E0FFEE4420FEEF4401FF900804EEF0A3EFF0900A29E0FEA3E0FFEE442005
:40348000FEEF4401FF900A29EEF0A3EFF090647EE4F0900A24E0FF75F002EF9007F512107CE0FEA3E0FF12638B900A27EEF0A3EFF0900A27E0FEA3E0FF900A25E0FCA3E095
:4034C000FDC3ED9FEC9E5041900A27E0FEA3E0FFEF4E6035900804E0FEA3E0FFEE4420FEEF4408FF900804EEF0A3EFF0900A29E0FEA3E0FFEE4420FEEF4408FF900A29EE92
:40350000F0A3EFF090647EE4F0900A24E0FF75F002EF9007E712107CE0FEA3E0FF12638B900A27EEF0A3EFF0900A27E0FEA3E0FF900A25E0FCA3E0FDC3ED9FEC9E5041900D
:403540000A27E0FEA3E0FFEF4E6035900804E0FEA3E0FFEE4420FEEF4401FF900804EEF0A3EFF0900A29E0FEA3E0FFEE4420FEEF4401FF900A29EEF0A3EFF090647EE4F05E
:40358000900A29E0FEA3E0FF22900A4DEFF0900A4EECF0A3EDF0900A50EAF0A3EBF0900A4DE0FFEF1210A635B70435E407360F08363A0A00003665900A52E0FFEFD3940F5B
:4035C00040117B0C7A0179181273E0900A53EFF002366A7B0C7A01791C1273E0900A53EFF002366A900A52E0FFEFD3940F40107B0C7A0179191273E0900A53EFF0806B7BFF
:403600000C7A01791D1273E0900A53EFF0805B900A52E0FFEFD3940F40107B0C7A01791A1273E0900A53EFF080407B0C7A01791E1273E0900A53EFF08030900A52E0FFEF27
:40364000D3940F40107B0C7A01791B1273E0900A53EFF080157B0C7A01791F1273E0900A53EFF08005900A53E4F0900A4DE0FFEF603B900A4DE0FFEF64016031900A4DE055
:40368000FFEF64026027900A4DE0FFEF6403601D900A4DE0FFEF64056013900A4DE0FFEF64066009900A4DE0FFEFB4090A900A54E4F0A3E4F0801D900A53E0FFEF3395E0C8
:4036C000FEEF7805C333CE33CED8F9FF900A54EEF0A3EFF0900A54E0FEA3E0FF900A4EE0FCA3E0FDED2FFFEC3EFE900A56EEF0A3EFF0900A50E0FEA3E0FF900A56E0FCA39F
:40370000E0FD1210FD900A581210707B007A8079007800900A58121048120F4E900A56EEF0A3EFF0900A52E0FFEFC3940E5037900A56E0FEA3E0FF900A52E0FDC3740E9DE7
:40374000FDEFA805088005CEC313CE13D8F9FF900A56EEF0A3EFF0900A52E0FFEF04FF904E0EEFF08006904E0E740FF0900A56E0FEA3E0FF904E0CEFF0900A56E0FEA3E0A7
:40378000FFEEFF7E00904E0DEFF02290FFFF1210CCEDF090FFFF1210CCEFF090FFFB1210CC7F007E007D007C00851E83851F821210709000061210F0E0FFEF640160030273
:4037C00038B49000051210F0E0FF1268C29000041210F0EFF09000041210F0E0FFEF60259000041210F0E014F09000061210F0E0FD9000041210F0E0FF1251C0851E83853B
:403800001F821210709000051210F0E0FF749E2FF582E43409F583E0FFEFB4025B851E83851F82C083C0821210489009C8121064120AC5D082D083121070851E83851F8219
:40384000C083C082121048C004C005C006C0079009BCE0FCA3E0FDEC120CFAA804A905AA06AB07D007D006D005D0041209D4D082D08312107002396E9000051210F0E0FF27
:40388000749E2FF582E43409F583E0FFEF6401600302396E851E83851F82C083C0821210489009C4121064120AC5D082D08312107002396E9000051210F0E0FF900004126D
:4038C00010F0EFF09000061210F0E0FD9000041210F0E0FF1251C0851E83851F821210709000051210F0E0FF74962FF582E43409F583E0FFEF705A851E83851F82C083C028
:40390000821210489009C8121064120AC5D082D083121070851E83851F82C083C082121048C004C005C006C0079009BCE0FCA3E0FDEC120CFAA804A905AA06AB07D007D033
:4039400006D005D0041209D4D082D083121070801D851E83851F82C083C0821210489009C0121064120AC5D082D083121070851E83851F821210489000071210CC2290FFB7
:40398000FD1210CC12109190FFFF1210CCEDF090FFFE1210CCEEF0A3EFF090FFF81210CC9000081210F0E0FCA3E0FDE4120CFA851E83851F821210707F007E007D007C00EA
:4039C0009000041210F012107090000B1210F0121088E4120DCD90000A1210F0E0FFEFD394005003023B4190000A1210F0E0FFEFD394084003023B41851E83851F82C0837D
:403A0000C08212104890000A1210F0E0FBEB25E025E024ACF582E43408F583121064120AC5D082D08312107090000A1210F0E0FF74952FF582E43409F583E0FFEF600302DB
:403A40003AC57F007E007D007C45851E83851F82121064120C6B60054003023B0890000B1210F01210887401120DCD851E83851F82C083C082121048C004C005C006C007BB
:403A80009009BCE0FCA3E0FDEC120CFAA804A905AA06AB07D007D006D005D0041209D0D082D083121070851E83851F82C083C0821210489009C8121064120BCED082D0836B
:403AC00012107080437F007E007D007C45851E83851F82121064120C6B6002502B90000B1210F01210887401120DCD851E83851F82C083C0821210489009C0121064120B0F
:403B0000CED082D08312107090000B1210F0121088120DB4FFEFB401287F007E007D807C41851E83851F82121064120AC57B007A007900783F1209D49000041210F0121045
:403B4000709000041210F0121048120D3390000E1210CC227F28124C96900B2AE0FEA3E0FF7C277D10120DF1900B48EFF0900B48E0FFEF2430FF124C96900B2AE0FEA3E0E5
:403B8000FF7C037DE8120DF1900B48E0FEEE75F00AA4FEC3EF9EFF900B48EFF0900B48E0FFEF2430FF124C96900B2AE0FEA3E0FF7C037DE8120DF1EF75F00AA4FB900B2A6E
:403BC000E0FEA3E0FF7C007D64120DF1C3EF9BFF900B48EFF0900B48E0FFEF2430FF124C96900B2AE0FEA3E0FF7C007D64120DF1EF75F00AA4FB900B2AE0FEA3E0FF7C00C2
:403C00007D0A120DF1C3EF9BFF900B48EFF0900B48E0FFEF2430FF124C96900B2AE0FEA3E0FF7C007D0A120DF1EF75F00AA4FF900B2AE0FCA3E0FDAE05C3EE9FFF900B48A8
:403C4000EFF0900B48E0FFEF2430FF124C967F3A124C96900B2EE0FFEF75F00A84FF900B48EFF0900B48E0FFEF2430FF124C96900B48E0FFEF75F00AA4FF900B2EE0FEC350
:403C8000EE9FFF900B48EFF0900B48E0FFEF2430FF124C967F3A124C96900B2DE0FFEF75F00A84FF900B48EFF0900B48E0FFEF2430FF124C96900B48E0FFEF75F00AA4FF0C
:403CC000900B2DE0FEC3EE9FFF900B48EFF0900B48E0FFEF2430FF124C967F3A124C96900B29E0FFEF75F00A84FF900B48EFF0900B48E0FFEF2430FF124C96900B48E0FF68
:403D0000EF75F00AA4FF900B29E0FEC3EE9FFF900B48EFF0900B48E0FFEF2430FF124C967F29124C962250536F43204465627567204D53472000204669726D776172652019
:403D40007665723A312E312E30006D56696E2C20006D566F75742C20006D496F7574005053555F5374617475733A00202020202020486F74537761705F5374617475733ABB
:403D8000004F766572726964655F5374617475733A0020436F6E74726F6C5F5374617475733A00486F74537761705F4661756C743A002020436F6E74726F6C5F5265673A55
:403DC000004B696C6C5F5265673A0032C832C8000032C80E100DEC0DEC31383138000031380D480D890D892A302C882AF81B580A8C0C3F0C3F2580293623F0177009C40B81
:403E0000DC0BDC42C800004020000042A800000000000000000000000000000000000042A00000400000003F8000000000000000000000000000000000000032C800003858
:403E40004000000000000000003138000033F400000000000000002C8800002AF800000000000000002936000023F000000000000000005031325620202020202020202001
:403E8000202020503132565F535442592020202020202056424154542020202020202020202020564D454D20202020202020202020202056434F494E202020202020202003
:403EC000202020503356335F53544259202020202020205033563320202020202020202020202090FFFC1210CC12107090FFF51210CC90000B1210F01210489000071210FC
:403F0000F01210707F007E007D007C009000071210F0121064C3121011700E9000051210F0E4F0A3E4F00240719000071210F0121048780E121022EF54FFFFEE5403FEED73
:403F40005400FDEC5400FCEE4402FE851E83851F82EEF0A3EFF09000071210F01210487817121022851E83851F82A3A3EFF0851E83851F82A3A3E0FF7E009000031210F0EB
:403F8000EEF0A3EFF09000031210F074FF75F081120E7C9000031210F074FF75F0F7120E7C9000031210F0E0FEA3E0FFC3EF94F0EE6480947F502E9000031210F0E475F06B
:403FC00001120E7C851E83851F82C083C082E0FEA3E0FFEEC313FEEF13FFD082D083EEF0A3EFF080BC7F007E007D007C0090000B1210F0121064120C6B5026851E83851FFD
:4040000082E0FEA3E0FFEE6407FEEF64FFFFEF2401FFEE3400FE851E83851F82EEF0A3EFF09000031210F0E0FEA3E0FF851E83851F82A3A3EFF0851E83851F82A3A3E0FF30
:404040007E00EF7F0033333354F8FE9000051210F0EEF0A3EFF0851E83851F82E0FEA3E0FFEE5407FE9000051210F0EE8FF0120E7C9000051210F0E0FEA3E0FF90000F120F
:4040800010CC22900A2FEEF0A3EFF0900A2FE0FEA3E0FFEE131313541FFF7E00900A33EFF0900A2FE0FEA3E0FFEE5407FE900A34EEF0A3EFF0900A33E0FFEF5410FF7E00D3
:4040C000EF4E60047F0180027F00900A32EFF0900A34E0FEA3E0FFEE30E2047F0180027F00900A31EFF0900A31E0FFEF6020900A34E0FEA3E0FFEE6407FEEF64FFFFEF2494
:4041000001FFEE3400FE900A34EEF0A3EFF0900A34E0FCA3E0FDE4120CFA900A36121070900A31E0FFEF600F900A36121048120CE4900A36121070900A32E0FFEF60119068
:404140000A33E0FFEF641FFFEF04FF900A33EFF0900A33E0FF74017E00A807088005C333CE33CED8F9FF900A3AEEF0A3EFF0900A33E0FFEFB41019900A361210487B007AC9
:404180000079807847120BCE900A361210708070900A32E0FFEF6035900A36121048C004C005C006C007900A3AE0FCA3E0FDE4120CFAA804A905AA06AB07D007D006D00521
:4041C000D004120BCE900A361210708033900A36121048C004C005C006C007900A3AE0FCA3E0FDE4120CFAA804A905AA06AB07D007D006D005D004120AC5900A361210701A
:40420000900A36121048227B007A4079807D077C001273AC904082741CF07B007A4079847D047C001273AC9040867418F07B007A4079887D197C001273AC90408A7418F070
:404240007B007A40798C7DB77C0B1273AC90408E7419F07B087A0B795CC003C002C0017B007A417900900A12121091D001D002D0037F047E00126BE69043007402F0904029
:40428000007408F09042007403F07B0C7A0179081273E09046A1EFF07B007A4279227D087C001273AC7B007A4279207D517C121273AC900A0CE4F07F197E007D007C0090A1
:4042C0000A08121070900A08121048D3EF9400EE9400404E900A0CE0FFEF64036044904225E0FFEF5401FF7E00900A0CE0FEEE25E0FEEE4FFFEF5403FF900A0CEFF07FE0B8
:404300007E017D007C00126B00900A081210487BFF7AFF79FF78FF120EA8900A0812107080A3900A08121048EF4E70057F031273497B007A4079047D007C011273AC9040C0
:40434000047407F0904006E4F09040087448F0904004E4F09040017402F090400B7404F09043A2E0FFEF440FFF9043A2EFF09043A1E0FFEF4401FF9043A1EFF09043A0E069
:40438000FFEF4480FF9043A0EFF022900A4DEEF0A3EFF0900A4FEDF0127420900A51EFF0127416900A52EEF0A3EFF0900A52E0FEA3E0FF900A4DE0FCA3E0FDED6F7002EC2A
:4043C0006E70030244FF9043A2E0FFEF5402FF900A50EFF0900A51E0FFEF706A900A52E0FEA3E0FFEF4E600C900A4DE0FEA3E0FFEF4E7052900A52E0FEA3E0FFEF4E702946
:40440000900A4DE0FEA3E0FFEF4E601D7B027A407984900A4DE0FCA3E0FD1273AE904086E0FFEF54BFFFEFF022904086E0FFEF4440FFEFF07B027A407984900A4DE0FCA37A
:40444000E0FD1273AE22900A50E0FFEF604B904001E4F09040107402F0904014E4F0904008E0FFEF547FFFEFF07B027A407902900A52E0FCA3E0FD1273AE9040017407F044
:40448000904001E0FFEF20E0F79043A2E0FFEF54FDFFEFF0904001E4F09043A2E0FFEF30E1357B027A407902900A4DE0FCA3E0FD1273AE900A4FE0FFEF60047F0280027F01
:4044C00000EF4401FF904001EFF0904001E0FFEF30E01580F580117B027A407984900A4DE0FCA3E0FD1273AE9043A2C083C082E0FF900A50E0FEEF4EFFD082D083EFF022E2
:40450000900A4DEEF0A3EFF0900A4FEDF0127434900A51EFF012742A900A52EEF0A3EFF0900A52E0FEA3E0FF900A4DE0FCA3E0FDED6F7002EC6E70030246749043A1E0FFB5
:40454000EF5401FF900A50EFF0900A51E0FFEF706A900A52E0FEA3E0FFEF4E600C900A4DE0FEA3E0FFEF4E7052900A52E0FEA3E0FFEF4E7029900A4DE0FEA3E0FFEF4E605B
:404580001D7B027A417900900A4DE0FCA3E0FD1273AE904102E0FFEF54BFFFEFF022904102E0FFEF4440FFEFF07B027A417900900A4DE0FCA3E0FD1273AE22900A50E0FFEE
:4045C000EF604B904001E4F09040147401F0904010E4F0904008E0FFEF547FFFEFF07B027A407902900A52E0FCA3E0FD1273AE9040017407F0904001E0FFEF20E0F7904356
:40460000A1E0FFEF54FEFFEFF0904001E4F09043A1E0FFEF30E0357B027A407902900A4DE0FCA3E0FD1273AE900A4FE0FFEF60047F0280027F00EF4401FF904001EFF09077
:404640004001E0FFEF30E01580F580117B027A417900900A4DE0FCA3E0FD1273AE9043A1C083C082E0FF900A50E0FEEF4EFFD082D083EFF022900A66E0FFEF1210A6474F2B
:404680000046BE1A476C40476C42476C43476C44476C46476C4A476C55476C57476C58476C59475B78476C79475B80476C88476C8B476C8C475B984794B0000047BC900A66
:4046C0005FE4F0900A5FE0FFEFC394145027900A5FE0FFEF75F006A424BBF582E43478F583E493FF900A69E0FEEE6F6008900A5FE004F080CE900A5FE0FFEF641460439001
:404700000A68E0FF900775EFF0900A69E0FF900776EFF0900A5FE0FFEF75F006A424C0F582E43478F583E493FFEF4480FF900A69EFF0900A69E0FFEF54FCFF900A69EFF02A
:404740008005900A69E4F0900A687401F0806D900774E0FF900A68EFF08061900A63121088120DB4FF900A68EFF08050900A63121088120DB4FF900A69EFF0900A63121039
:4047800088E92401F9EA3400FA120DB4FF900A68EFF08028900AA9E0FF7E00900A63121088C003C002C0017B017A0A7968A801AC02AD03D001D002D0031211E6900A68E021
:4047C000FF906508EFF0906478740DF0906558E4F02290FFFF1210CC12740C1274021272967F00124DB3900975E4F01272D5851E83851F82E4F0851E83851F82E0FFEFC345
:404800009408400302490F851E83851F82E0FFEF25E02414F582E43409F583E0FCA3E0FD851E83851F82E0FFEF04FF1259BC851E83851F82E0FFEF25E02476F582E43409E7
:40484000F583E0FCA3E0FD851E83851F82E0FFEF04FF125864851E83851F82E0FFEF25E02486F582E43409F583E0FCA3E0FD851E83851F82E0FFEF04FF1257B8851E83855B
:404880001F82E0FFEF25E02424F582E43409F583E0FCA3E0FD851E83851F82E0FFEF04FF125910851E83851F82E0FFEF25E025E024D4F582E43408F58312104890FFFC1206
:4048C00010CC1210709000041210F0E0FFEF04FF125B14851E83851F82E0FFEF25E025E02434F582E43409F58312104890FFFC1210CC1210709000041210F0E0FFEF04FFDA
:40490000125A68851E83851F82E004F00247F69009757401F09000011210CC22C0E0C0F0C083C082C085C084C086758600C093759300C0D075D000C000C001C002C003C09B
:4049400004C005C006C0071274C81274C01274C41271BC127310900B2FE0FEA3E0FFEF2401FFEE3400FE900B3EEEF0A3EFF0900B3EE0FEA3E0FF900B2FE0FCA3E0FDC3ED8A
:404980009FEC9E40E9127484EF20E003024A101273F87F4012738D900B2FE0FEA3E0FFEF2403FFEE3400FE900B3EEEF0A3EFF0900B3EE0FEA3E0FF900B2FE0FCA3E0FDC345
:4049C000ED9FEC9E40E91271411271271272427FC012738D7F0212555ED3EF94B0EE940440067F01C00780047F00C0077F0712555ED3EF944AEE940140047E0180027E0099
:404A0000D007EE4FFFEF70CC7F0012738D1273D4900B3EE0FEA3E0FF900B2FEEF0A3EFF01273361272FD127323D007D006D005D004D003D002D001D000D0D0D093D086D042
:404A400084D085D082D083D0F0D0E03290FFFE1210CCEAF0A3EBF090FFFE1210CCECF0A3EDF090FFFF1210CCEFF090FFF81210CC9000081210F0E0FFEF60289000091210E1
:404A8000F0E0FEA3E0FFEE3395E0FDFC7B107A0079007800120EC3851E83851F82121070024B3990000B1210F0E0FEA3E0FF8F828E83121048851E83851F82121070851EC0
:404AC00083851F82121048EF2408FFEE3400FEED3400FDEC3400FC9000041210F01210709000041210F0C083C0821210487B107A007900780012694ED082D08312107090DC
:404B000000041210F0121064851E83851F82121048120EB5A804A905AA06AB079000091210F0E0FEA3E0FFEE3395E0FDFC120EA8851E83851F82121070851E83851F8212F4
:404B4000104890000B1210F0E0FAA3E0FB8B828A83121070851E83851F82121048EC120CF57B007A0079807841120BCE90000D1210CC22900A24EFF0900A25E4F0A3E4F091
:404B80007F007E007D007C00900A271210707F007E007D007C00900A2B121070900A24E0FF75F002EF90082312107CE0FEA3E0FF124083900A27121070900A24E0FF75F089
:404BC00002EF9007AF12107CE0FEA3E0FF124083900A2B121070900A2B121048900A27121064120C6B603C403A7F007E007D007C00900A2B121064120C6B6027900804E072
:404C0000FEA3E0FFEE4440FEEF4410FF900804EEF0A3EFF0900A257440F0A37410F090647EE4F0900A24E0FF75F002EF9007BD12107CE0FEA3E0FF124083900A2B12107015
:404C4000900A2B121048900A27121064120C6B603C403A7F007E007D007C00900A2B121064120C6B6027900804E0FEA3E0FFEE4440FEEF4401FF900804EEF0A3EFF0900A99
:404C8000257440F0A37401F090647EE4F0900A25E0FEA3E0FF22900A16EFF09044C87440F0900403E0FEA3E0FF900A17EEF0A3EFF0900001E0FEA3E0FF900A19EEF0A3EFB1
:404CC000F09044C07440F0900A19E0FEA3E0FF900A17E0FCA3E0FDC3ED9FEC9E5028900A19E0FEA3E0FFEF24FFFFEE34FFFE900A17E0FCA3E0FDEFB50508EEB504047F01EF
:404D000080027F008025900A19E0FEA3E0FF900A17E0FCA3E0FDC3ED9FFFEC9EFEEFB4FF08EEB403047F0180027F00EF6003024C9B900A17E0FEA3E0FF900A19E0FCA3E0A5
:404D4000FDEDB50718ECB5061490646EE0FFEF20E20B900A16E0FF90644EEFF022900A17E0FEA3E0FFC3EE94044008900A17E4F0A3E4F0900A16E0FF900A17E0FCA3E0FD71
:404D800074032DF58274003CF583EFF0900A17E475F001120E7C9044C87440F0900A17E0FEA3E0FF900403EEF0A3EFF09044C07440F02290FFFF1210CCEFF090FFEE12109E
:404DC000CC7BFF7A797933C003C002C0017B01851E83851F82A982AA83A801AC02AD03D001D002D0037E007F091211E67BFF7A79793CC003C002C0017B019000091210F04D
:404E0000A982AA83A801AC02AD03D001D002D0037E007F091211E69000121210F0E0FFEFD394084003024EC1905802E0FFEF5480FFEFF0905802C083C082E0FF90001212DD
:404E400010F0E0FE9000091210F0E5822EF582E43583F583E0FEEE25E025E0FEEE540CFE9000121210F0E0FD851E83851F82E5822DF582E43583F583E0FDEE4DFEEF4EFF1B
:404E8000D082D083EFF0905801E0FFEF54F3FFEFF0905801C083C082E0FF9000121210F0E0FE9000091210F0E5822EF582E43583F583E0FEEE440CFEEF4EFFD082D083EFFE
:404EC000F09000131210CC22900A5EEFF0900A5FE4F0900A5FE0FFEFC394144003024FC2900A5FE0FFEF75F006A424BBF582E43478F583E493FF900A5EE0FEEE6F600302A1
:404F00004FB9900A5FE0FFEF75F006A424BCF582E43478F583E493FF900AA9EFF0900A5EE0FF900A66EFF0900A5FE0FFEF75F006A424C0F582E43478F583E493FF900A623B
:404F4000EFF0900A5FE0FFEF75F006A424BDF582E43478F58312109A900A63121091900A62E0FFEF5480FF7E00EF4E6055900AAAE0FFEF64FF601C900AA9E0FF7E00900A78
:404F8000AAE0FD7C00120DDF900A64EE8FF0120E7C802F900A62E0FFEF5402FF7E00EF4E7010900A62E0FFEF54C0FF900A62EFF08010900A62E4F08009900A5FE004F00270
:404FC0004ED2900A5FE0FFEFB414047F0880027F0022900A0FEEF0A3EFF0900A0FE0FEA3E0FF7C277D10120DF1900B48EFF0900B48E0FFEF2430FF124C96900A0FE0FEA31E
:40500000E0FF7C037DE8120DF1900B48E0FEEE75F00AA4FEC3EF9EFF900B48EFF0900B48E0FFEF2430FF124C96900A0FE0FEA3E0FF7C037DE8120DF1EF75F00AA4FB900A40
:405040000FE0FEA3E0FF7C007D64120DF1C3EF9BFF900B48EFF0900B48E0FFEF2430FF124C96900A0FE0FEA3E0FF7C007D64120DF1EF75F00AA4FB900A0FE0FEA3E0FF7C56
:40508000007D0A120DF1C3EF9BFF900B48EFF0900B48E0FFEF2430FF124C96900A0FE0FEA3E0FF7C007D0A120DF1EF75F00AA4FF900A0FE0FCA3E0FDAE05C3EE9FFF900B94
:4050C00048EFF0900B48E0FFEF2430FF124C9622900A24EFF07F007E007D007C00900A25121070900A24E0FFEFD3940840030251B9900A24E0FFEFD3940050030251B97D72
:4051000001900A24E0FFEF14FF12378B900A25121070900A24E0FF749D2FF582E43409F583E0FFEFB40127900A25121048900A24E0FBEB25E025E02451F582E43409F583D7
:40514000121064120BCE900A25121070806B900A24E0FF749D2FF582E43409F583E0FFEFB40256900A25121048C004C005C006C007900A24E0FFEF25E025E02451F582E416
:405180003409F583121048900A24E0FBEB25E025E024F0F582E43408F583121064120AC5A804A905AA06AB07D007D006D005D004120BCE900A25121070900A25121048221F
:4051C00090FFFF1210CCEDF090FFFF1210CCEFF090FFFC1210CC7F007E007D007C00851E83851F821210709044CB7420F09000051210F0E0FFEF70249000041210F0E0FFFD
:4052000075F005EF9006FE12107C121048EC120CF5851E83851F82121070802E9000051210F0E0FFEFB401229000041210F0E0FF75F005EF90064212107C121048EC120CDA
:40524000F5851E83851F821210709044C37420F09000051210F0E0FFEF7021851E83851F82C083C0821210487B007A0079807841120BCED082D083121070801F851E8385EC
:405280001F82C083C0821210487B007A0079807841120BCED082D083121070851E83851F821210489000061210CC22900A62E0FFEF5402FF7E00EF4E700302536C900A662B
:4052C000E0FFEF1210A652F10053394053394253394353394453394653394A533955533957533958533959531E7853397900005395900A68E0FFEFC39407400D900A68E034
:40530000FFEF64FF6003025395900A68E0FF900AAAEFF0900AAAE0FF900774EFF022900A67E0FFEFC39401406C900A68E0FF900A63121088EF120DCD22900A67E0FFEFC3B2
:4053400094024051900A69E0FF900A63121088EF120DCD900A68E0FF900A63121088E92401F9EA3400FAEF120DCD2222900A62E0FFEF5440FF7E00EF4E6015900AA9E0FF2D
:40538000900A67E0FEEEC39F400B7F001261A0227F101271742275930078007583467582E8E04401F0009046ECE0F99046FAE0FAB903225420B40012B8001AEA900FFFF0BE
:4053C0007401900FFEF09046F6F0900FFEE06005900FFFE0FA90480074C0F075815590000078007910E4F0A3D8FCD9FAEA900B0BF0020011751E0F751FFD1229C802543B45
:4054000002120CE493A3F8E493A34003F68001F208DFF48029E493A3F85407240CC8C333C4540F4420C8834004F456800146F6DFE4800B0102040810204080902CBBE47E4E
:40544000019360BCA3FF543F30E509541FFEE493A360010ECF54C025E060A840B8E493A3FAE493A3F8E493A3C8C582C8CAC583CAF0A3C8C582C8CAC583CADFE9DEE780BE43
:40548000C0E0C0F0C083C082C085C084C086758600C093759300C0D075D000C000C001C002C003C004C005C006C00712749CEF6404FF12738D900B2FE475F001120E92AF02
:4054C000F0FE900B3EEEF0A3EFF0900B2FE0FEA3E0FFC3EF94E8EE94034060900B2FE4F0A3E4F0900B29E004F0900B2CE004F0900B29E0FFEFC3943C4041900B29E4F090F2
:405500000B2DE004F0D206900B2DE0FFEFC3943C4029900B2DE4F0900B2EE004F0D207900B2EE0FFEFC394184011900B2EE4F0900B2AE475F001120E7CD205D007D006D0F0
:4055400005D004D003D002D001D000D0D0D093D086D084D085D082D083D0F0D0E03290FFFF1210CCEFF090FFFC1210CC7F007E007D007C00851E83851F8212107090000487
:405580001210F0E0FFEFD3940850769000041210F0E0FFEFD3940040687D009000041210F0E0FFEF14FF12378B851E83851F82121070851E83851F82C083C08212104890D2
:4055C00000041210F0E0FBEB25E025E024ACF582E43408F583121064120BCED082D083121070851E83851F82C083C0821210487B007A007900783F1209D4D082D083121028
:40560000707F007E007D007C00851E83851F82121064120C6B50117F007E007D007C00851E83851F82121070851E83851F82121048120D339000051210CC22904E00E0FF0A
:40564000EF54FEFFEFF0904E01E0FFEF4404FFEFF09046F8E0FFEF4402FFEFF09046F9E0FFEF4402FFEFF0905891E0FFEF54FCFFEFF0905892E0FFEF54F7FFEFF07F037ED1
:4056800000126D689046F8E0FFEF54FDFFEFF09046F9E0FFEF54FDFFEFF09043AAE0FFEF54EFFFEFF09043AAE0FFEF54FEFFEFF09043BAE0FFEF54FEFFEFF09043BAE0FF8E
:4056C000EF54EFFFEFF0905877E0FFEF54F9FFEFF09043A1E0FFEF54FEFFEFF09043B1E0FFEF54FEFFEFF09043A2E0FFEF54FDFFEFF09043B2E0FFEF54FDFFEFF022C0E098
:40570000C0F0C083C082C085C084C086758600C093759300C0D075D000C000C004C005C006C007A2AFE433FF900A61EFF0D2AF9044F474FDF0900403E0FEA3E0FF900001F1
:40574000E0FCA3E0FDED6F7002EC6E604490646EE0FFEF20E23B900001E0FEA3E0FFC3EE94044008900001E4F0A3E4F0900001E0FEA3E0FF74032FF58274003EF583E0FF1F
:4057800090644EEFF0900001E475F001120E7C80A4900A61E0FFEF24FF92AFD007D006D005D004D000D0D0D093D086D084D085D082D083D0F0D0E03290FFFE1210CCECF03A
:4057C000A3EDF090FFFF1210CCEFF090FFFB1210CC9000041210F0E4F07B019000041210F0A982AA839000051210F0E0FD9000061210F0E0FEA3E0FF12397E851E83851F43
:40580000821210709000041210F0E0FFEF6401704C9044CB7420F0851E83851F821210489000051210F0E0FB75F015EB90064512107C1210709000061210F0E0FEA3E0FFEC
:405840009000051210F0E0FD75F015ED90064F12107CEEF0A3EFF09044C37420F09000081210CC2290FFFE1210CCECF0A3EDF090FFFF1210CCEFF090FFFB1210CC90000459
:405880001210F0E4F07B019000041210F0A982AA839000051210F0E0FD9000061210F0E0FEA3E0FF12397E851E83851F821210709000041210F0E0FFEF6401704C9044CB21
:4058C0007420F0851E83851F821210489000051210F0E0FB75F015EB90064112107C1210709000061210F0E0FEA3E0FF9000051210F0E0FD75F015ED90064D12107CEEF02E
:40590000A3EFF09044C37420F09000081210CC2290FFFE1210CCECF0A3EDF090FFFF1210CCEFF090FFFB1210CC9000041210F0E4F07B019000041210F0A982AA83900005EF
:405940001210F0E0FD9000061210F0E0FEA3E0FF12397E851E83851F821210709000041210F0E0FFEF6401704C9044CB7420F0851E83851F821210489000051210F0E0FB99
:4059800075F015EB90040712107C1210709000061210F0E0FEA3E0FF9000051210F0E0FD75F015ED90041112107CEEF0A3EFF09044C37420F09000081210CC2290FFFE12BF
:4059C00010CCECF0A3EDF090FFFF1210CCEFF090FFFB1210CC9000041210F0E4F07B019000041210F0A982AA839000051210F0E0FD9000061210F0E0FEA3E0FF12397E85CE
:405A00001E83851F821210709000041210F0E0FFEF6401704C9044CB7420F0851E83851F821210489000051210F0E0FB75F015EB90040312107C1210709000061210F0E069
:405A4000FEA3E0FF9000051210F0E0FD75F015ED90040F12107CEEF0A3EFF09044C37420F09000081210CC2290FFFF1210CCEFF090FFFB1210CC9000041210F0E4F07B018E
:405A80009000041210F0A982AA8390FFFD1210CC1210919000081210F0E0FF90FFFF1210CCEFF090000A1210F0121048122F0A851E83851F821210709000041210F0E0FF13
:405AC000EF640170489044CB7420F0851E83851F821210489000051210F0E0FB75F015EB90064912107C1210709000061210F01210489000051210F0E0FB75F015EB90063C
:405B00005112107C1210709044C37420F090000A1210CC2290FFFF1210CCEFF090FFFB1210CC9000041210F0E4F07B019000041210F0A982AA8390FFFD1210CC121091909B
:405B400000081210F0E0FF90FFFF1210CCEFF090000A1210F0121048122F0A851E83851F821210709000041210F0E0FFEF640170489044CB7420F0851E83851F8212104828
:405B80009000051210F0E0FB75F015EB90040B12107C1210709000061210F01210489000051210F0E0FB75F015EB90041312107C1210709044C37420F090000A1210CC229A
:405BC0009043AAE0FFEF4401FFEFF09043AAE0FFEF4410FFEFF09043BAE0FFEF4401FFEFF09043BAE0FFEF4410FFEFF0900B17E0FFEF6401703E9046F8E0FFEF4402FFEF4C
:405C0000F09046F9E0FFEF4402FFEFF0905891E0FFEF4403FFEFF07F037E00126D689046F8E0FFEF54FDFFEFF09046F9E0FFEF54FDFFEFF0905877E0FFEF4406FFEFF090E4
:405C400043A1E0FFEF4401FFEFF09043B1E0FFEF4401FFEFF09043A2E0FFEF4402FFEFF09043B2E0FFEF4402FFEFF02290FFFE1210CCECF0A3EDF090FFFF1210CCEFF09018
:405C8000FFFE1210CC851E83851F82A3A3E0FFEFD3941F5003D38001C340057F001272C0851E83851F82A3A3E0FFEF541FFF7E00EF25E0FFEE33FEEF2400FFEE3444FEAA1F
:405CC00006A9077B0112739F851E83851F82EEF0A3EFF0851E83851F82A3A3E0FF7E02EF8EF0A4FFAEF0EF2400FFEE3444FEAA06A9077B019000031210F0E0FEA3E0FFADFF
:405D000007AC061273AE851E83851F82E0FEA3E0FF9000051210CC22AF54749E2FF582E43409F583E0FFEF7004055480EBAF54749E2FF582E43409F583E0FFEF6401702FA6
:405D4000855449AF49126E6DAF49126E43E54F64026016754F027D007F021223CE7C007D1A7F1D125C6C1270D2854F48D20422E5542425F549AF49126E6D7F25126E43E5A8
:405D80004F6404602C754F047D007F041223CE90589A7402F090589B7402F090589CE4F090589DE4F07C007D1A7F1D125C6C1270D2854F48D20422900A42EFF0900A42E0EB
:405DC000FFEFC394264003025E4D900A42E0FF900A42E02FF0900A42E0FFEF25E024D5F582E43474F583E493FE740193FF8F828E83C083C082E0FF900A42E0FEEE90756D73
:405E000093FEEEF4FEEF5EFFD082D083EFF0900A42E004F0900A42E0FFEF25E024D5F582E43474F583E493FE740193FF8F828E83C083C082E0FF900A42E0FEEE90756D939F
:405E4000FEEEF4FEEF5EFFD082D083EFF022900A42EFF0900A42E0FFEFC39445507F900A42E0FF900A42E02FF0900A42E0FF75F002EF9075B912107CE493FE740193FF8F74
:405E8000828E83C083C082E0FF900A42E0FEEE9076CD93FEEEF4FEEF5EFFD082D083EFF0900A42E004F0900A42E0FF75F002EF9075B912107CE493FE740193FF8F828E8374
:405EC000C083C082E0FF900A42E0FEEE9076CD93FEEEF4FEEF5EFFD082D083EFF022754C00754B01854C49AF49126E6D900996E0FFEF703D7F25126E43E54F6404602C7531
:405F00004F047D007F041223CE90589A7402F090589B7402F090589CE4F090589DE4F07C007D1A7F1D125C6C1270D2854F48D20422AF49126E43E54F6401602C754F017D76
:405F4000007F011223CE90589A7402F090589B7402F090589CE4F090589DE4F07C007D1A7F1D125C6C1270D2854F48D20422C0E0C0F0C083C082C085C084C086758600C0CC
:405F800093759300C0D075D000C000C001C002C003C004C005C006C007900A21E4F0900A22E4F0A3E4F0127490EF541FFF900A21EFF0900A21E0FF900806EFF0900804E01B
:405FC000FEA3E0FFEE4410FEEF4401FF900804EEF0A3EFF090647EE4F0D007D006D005D004D003D002D001D000D0D0D093D086D084D085D082D083D0F0D0E032900A42EFBC
:40600000F0900A42E0FFEFC39426507D900A42E0FF900A42E02FF0900A42E0FFEF25E024D5F582E43474F583E493FE740193FF8F828E83C083C082E0FF900A42E0FEEE9089
:40604000756D93FEEF4EFFD082D083EFF0900A42E004F0900A42E0FFEF25E024D5F582E43474F583E493FE740193FF8F828E83C083C082E0FF900A42E0FEEE90756D93FE6D
:40608000EF4EFFD082D083EFF02290FFFE1210CCEEF0A3EFF090FFFA1210CC851E83851F82E4F0A3E4F07F007E007D007C00851E83851F82A3A31210709000061210F0E073
:4060C000FCA3E0FDE4120CFA851E83851F82A3A3121070851E83851F82A3A3C083C0821210487B007A00797A7844120BCED082D083121070851E83851F82A3A312104812AF
:406100003EE3851E83851F82EEF0FEA3EFF0FF9000081210CC22900A42EFF0900A42E0FFEFC394455079900A42E0FF900A42E02FF0900A42E0FF75F002EF9075B912107C20
:40614000E493FE740193FF8F828E83C083C082E0FF900A42E0FEEE9076CD93FEEF4EFFD082D083EFF0900A42E004F0900A42E0FF75F002EF9075B912107CE493FE740193B7
:40618000FF8F828E83C083C082E0FF900A42E0FEEE9076CD93FEEF4EFFD082D083EFF022900A5FEFF0900A5FE0FF90072BEFF0900A66E0FF90072CEFF0900AA9E0FF9007E1
:4061C0002EEFF0900A62E0FFEF5480FF7E00EF4E600C900AAAE0FF90072DEFF0800590072DE4F0900A67E0FFEF602A900A67E014F0900A67E0FF74682FF582E4340AF583B1
:40620000E0FF900A67E0FE742F2EF582E43407F583EFF080CE9008AF7401F09044C87410F022900A4D1210707F0A7E007D007C00900A4D121064120EC3900A51121064126A
:406240000F4E900A55EEF0A3EFF0900A51121064900A4D121048120F4E900A57EEF0A3EFF0900A57E0FEA3E0FF7C007D0A120DDF900A55E0FCA3E0FDC3ED9FFFEC9EFEC3BA
:40628000EF9405EE9400400A900A57E475F001120E7C900A57E0FEA3E0FF2290FFFF1210CCEDF090FFFF1210CCEFF0851E83851F82A3E0FFEFD394075003D38001C34005B2
:4062C0007F001272C0851E83851F82E0FFEFD3941F5003D38001C340057F001272C0851E83851F82A3E0FFEF5407FF7E00EF75F020A4FFAEF0851E83851F82E0FEEE541FF4
:40630000FE74802EF582E43444F583EFF09000021210CC22900A0F7427F0A37410F07F017E00126D68126EC1900A11EFF0900A0F74FF75F0FF120E7C900A0FE0FEA3E0FF51
:40634000EF4E6009900A11E0FFEF30E7D1126EC1900A11EFF0900A11E0FFEF30E727900B3BE0FFEF700B1266D3900B3B7401F08010900B3CE0FF1269D5900B3DE0FF12652B
:406380004C126CDD227F001272C02290FFFE1210CCEEF0A3EFF090FFFA1210CC851E83851F82E4F0A3E4F07F007E007D007C00851E83851F82A3A31210709000061210F084
:4063C000E0FEA3E0FF124083851E83851F82A3A31210707F007E007D7A7C44851E83851F82A3A3121064120AC5120D33851E83851F82EEF0FEA3EFF0FF9000081210CC22F4
:406400009009BE7401F0A20AE433FF1217149009BE7402F0A20AE433FF1217149009BE7403F0A20AE433FF1217149009BE7408F0A20AE433FF1217149009BE7409F0A20AF6
:40644000E433FF1217149009BE740AF0A20AE433FF1217149009BE7404F0A20AE433FF1217149009BE7407F0A20AE433FF12171422C0E0C0F0C083C082C085C084C086754B
:406480008600C093759300C0D075D000C000C001C002C003C004C005C006C0071268767F201271749008AFE4F0900B40E4F0900B41E4F0126E979044C07410F0D007D0063E
:4064C000D005D004D003D002D001D000D0D0D093D086D084D085D082D083D0F0D0E0327B0C7A0179CF1273E0900A08EFF0900A08E0FFEF5407FF90586EEFF0900A08E0FFB4
:40650000EFC4540FFFEF540FFF90586FEFF090513D7480F0905A037402F0905A387450F0905B007410F0905B037401F07B027A5B79407D047C011273AE905B587490F090DF
:406540005B5B7401F09058767444F022900A14EFF0900A14E0FFEF70057F001272C01272AB900A16EFF0904320E0FF904320E0FF900A15EFF0900A14E0FFEFC43354E0FF01
:40658000EF5460FF900A15E0FEEE549FFEEE4FFF904320EFF0900A16E0FF12718C900A14E0FFEFB401097F03126A14126D0B227F01126A14126D3922900A0FEFF0900A0F0E
:4065C000E0FFEFC4540FFF900B48EFF0900B48E0FFD3EF648094894007900B48E02407F0900B48E0FFEF2430FF124C96900A0FE0FFEF540FFF900B48EFF0900B48E0FFD313
:40660000EF648094894007900B48E02407F0900B48E0FFEF2430FF124C96229044C87420F07D077F0512629B9065877401F01272AB900A10EFF0906597E0FFEF4410FFEFBF
:40664000F0900A10E0FF12718C90642F74FFF01272AB900A10EFF090649FE0FFEF4403FFEFF0900A10E0FF12718C7F3F7E9C126DEE9065877401F022900A0F121091900AF8
:4066800012ECF0A3EDF0900A14E4F0A3E4F0900405E0FFEF603C900A0F121088900A14E0FEA3E0FFE92FF9EA3EFA120DB4FF124C96900A14E475F001120E7C900A12E0FEF8
:4066C000A3E0FF900A14E0FCA3E0FDC3ED9FEC9E40C4221272AB900A13EFF0904321E0FF904321E0FF900A12EFF0900A12E0FFEF4404FF904321EFF0904322E0FF904322C6
:40670000E0FF900A12EFF0900A12E0FFEF54FDFF904322EFF0900A13E0FF12718C7F00126F0B7F121269D57F0312654C22900A0F121091900A12E4F0A3E4F0900405E0FF98
:40674000EF6042900A0F121088900A12E0FEA3E0FFE92FF9EA3EFA120DB4FFEF6027900A0F121088900A12E0FEA3E0FFE92FF9EA3EFA120DB4FF124C96900A12E475F00160
:40678000120E7C80BE229064787408F090648C7401F01272AB900A0FEFF090649CE0FFEF4410FFEFF0900A0FE0FF12718C90648B7407F012661B9044C87410F07D077F04AE
:4067C00012629B900B477410F01274B41274BA900B20E4F07F201272E922905B00E0FF90040AEFF0905B02E0FF90040BEFF0905B03E0FF90040CEFF0905B04E0FF90040DB1
:40680000EFF0905B06E0FF90040EEFF0905B00E4F0905B02E4F0905B03E4F0905B04E4F0905B06E4F0D20322905B00E4F0905B02E4F0905B03E4F0905B04E4F0905B06E48D
:40684000F090040AE0FF905B00EFF090040BE0FF905B02EFF090040CE0FF905B03EFF090040DE0FF905B04EFF090040EE0FF905B06EFF0C203229044C87410F090648CE055
:40688000FFEF54DFFFEFF090646CE0FF1271A41272AB900A60EFF090649BE0FFEF54DFFFEFF0900A60E0FF12718C906478E0FFEF54FEFFEFF09044D87410F0900B47741025
:4068C000F022900A29EFF0900A2AE4F0900A2BE4F0900A29E0FF900A2BE0FEEED39F5022900A2BE0FF749E2FF582E43409F583E0FFEF6006900A2AE004F0900A2BE004F042
:4069000080CF900A2AE0FF22907780121054EFB4AA30EEB4552C7BFF7A777980C003C002C0017B017A077970A801AC02AD03D001D002D0037E017F3B1211E6900A0FE4F0DA
:406940008006900A0F7406F0900A0FE0FF22C2D5E830E70FB2D5E4C39BFBE49AFAE499F9E498F8EC30E717B2D5126984120F4EE4C39BFBE49AFAE499F9E498F88003120FB7
:406980004E30D50DE4C39FFFE49EFEE49DFDE49CFC22900A4EEFF09046F8E0FFEF4403FFEFF09046F9E0FFEF4403FFEFF0900A4EE0FF905892EFF07F037E00126D6890466F
:4069C000F8E0FFEF54FCFFEFF09046F9E0FFEF54FCFFEFF022900A14EFF01272AB900A16EFF0904320E0FF904320E0FF900A15EFF0900A14E0FFEF541FFF900A15E0FEEED0
:406A000054E0FEEE4FFF904320EFF0900A16E0FF12718C22900A17EFF01272AB900A19EFF0904321E0FF904321E0FF900A18EFF0900A17E0FFEF5403FF900A18E0FEEE5427
:406A4000FCFEEE4FFF904321EFF0900A19E0FF12718C221272AB900A0FEFF090649EE0FFEF4401FFEFF090649EE0FFEF54FEFFEFF0900A0FE0FF12718C12747D900001E471
:406A8000F0A3E4F0900403E4F0A3E4F012747622900A5EE4F0900A62E0FFEF5401FF7E00EF4E6005124675801C900A62E0FFEF5420FF7E00EF4E60077F011261A0800690F4
:406AC0000A5E7410F0900A5EE0FF22900A1CEFF0905801E0FFEF54FCFF900A1DEFF0900A1DE0FF900A1CE0FEEE5403FEEF4EFF900A1DEFF0900A1DE0FF905801EFF02222AF
:406B0000EC4D4E700D78FCEF24E950032840FD2200007BF178DA0000EF28FF78FFEE38FEED38FDEC38FC50E7EF2BFFEE38FEED38FDEC38FC40F22205020304904E11E0FF70
:406B40007E00900A41EEF0A3EFF0900A41E0FEA3E0FFEF7F00FE904E10E0FD7C00EE4CFEEF4DFF900A41EEF0A3EFF0900A41E0FEA3E0FF2290FFFF1210CC851E83851F829B
:406B8000E4F0851E83851F82E0FFEFC394265016851E83851F82E0FF125DB7851E83851F82E004F080DC9000011210CC2290FFFF1210CC851E83851F82E4F0851E83851F30
:406BC00082E0FFEFC394455016851E83851F82E0FF125E4E851E83851F82E004F080DC9000011210CC22758600EF4E6027EF60010E759300900A12E0F595A3E0F585A3E082
:406C0000F5848B938A838982E0A30586F0A31586DFF6DEF4E4F593F595229044CB7420F07D077F1D12629B1270B58F4AC200754CFF754BFF754E007C007D1A7F1D125C6CBB
:406C40009044D37420F09044C37420F022900A1C1210709044CB7420F0900A1C121048EF54FFFFEE5400FEED5400FDEC5400FC8F2A8E298D288C279044C37420F022900A77
:406C80001C1210709044CB7420F0900A1C121048EF54FFFFEE5400FEED5400FDEC5400FC8F3B8E3A8D398C389044C37420F02212678690647E7401F09008AE7401F0900876
:406CC000AD7419F090072A7440F07C267DD07F04125C6C7C647D717F05125C6C221272AB900A13EFF0904321E0FF904321E0FF900A12EFF0900A12E0FFEF4408FF904321C6
:406D0000EFF0900A13E0FF12718C221272AB900A18EFF0904322E0FF904322E0FF900A17EFF0900A17E0FFEF4401FF904322EFF0900A18E0FF12718C221272AB900A18EF96
:406D4000F0904322E0FF904322E0FF900A17EFF0900A17E0FFEF54FEFF904322EFF0900A18E0FF12718C2232EEFA900B06E0F88FF0A4FFAEF0E88AF0A42EFEE5F03400FDFA
:406D8000EF24C9FF78FFEE38FEED38FDE438FC5003026B0022ACEAADA08B938A838982E0F96017A3E0F5EAA3E0F5A0A3E060F4FAA3E0F8A3E0F2DAF8D9E98DA08CEAE4F58D
:406DC0009322900A0FEFF0905858E0FFEF54FCFFEFF0905858C083C082E0FF900A0FE0FEEE5403FEEF4EFFD082D083EFF022900A11EEF0A3EFF0900A11E0FEA3E0FFEF5471
:406E0000FFFF90644FEFF0900A11E0FEA3E0FFEEFF7E0090645FEFF0221274CC1274CF7F0012736D7F0012737D7FFF7E007D007C00126C4D7FFF7E007D007C00126C7E75A9
:406E40004D0C22900A41EFF0900B43E0FFEF64FF6008900B43E0FF125DB7900A41E0FF125FFC900A41E0FF900B43EFF022900A41EFF0900B45E0FFEF64FF6008900B45E0D0
:406E8000FF125E4E900A41E0FF126116900A41E0FF900B45EFF0221272AB900A60EFF090649BE0FFEF4420FFEFF0900A60E0FF12718C906478E0FFEF4401FFEFF012735B6B
:406EC000221272AB900A13EFF0904324E0FF904324E0FF900A12EFF0900A13E0FF12718C900A12E0FF221272AB900A0FEFF090649EE0FFEF4410FFEFF09044C07440F012A3
:406F000071D3900A0FE0FF12718C22900A14EFF0900A14E0FFEF25E0FFEF5406FF904325E0FEEE54F9FEEE4FFF904325EFF0227C567DFE7F06125C6C7D077F0612629B9067
:406F4000642D7407F090643D7448F090648E7402F0227F0112200E7F10126FFC7F10126FDB900A52740CF07B007A807DD27C927F0512358922905877E0FFEF4460FFEFF024
:406F80009043A4E0FFEF4401FFEFF09043B4E0FFEF4401FFEFF022905800740CF0905801E0FFEF4420FFEFF09058027480F07F00124DB37F02126ACB229043A9E0FFEF44A7
:406FC00001FFEFF09043B9E0FFEF4401FFEFF0905877E0FFEF4480FFEFF022900A4DEFF0904086C083C082E0FF900A4DE0FEEE54F8FEEF4EFFD082D083EFF022900A4DEF0F
:40700000F0904102C083C082E0FF900A4DE0FEEE54F8FEEF4EFFD082D083EFF022900A0FEFF0900405E0FFEF6012900A0FE0FF124C967F0D124C967F0A124C9622900A1C98
:40704000EEF0A3EFF07B027A447904900A1CE0FEA3E0FFAD07AC061273AE22900A1CEEF0A3EFF07B027A447900900A1CE0FEA3E0FFAD07AC061273AE22900A1CEEF0A3EF66
:40708000F07B027A447902900A1CE0FEA3E0FFAD07AC061273AE22900A1CEEF0A3EFF07B027A447906900A1CE0FEA3E0FFAD07AC061273AE22900A1C7410F0900A1CE0FFF9
:4070C0007410D39F4006900A1C7410F0900A1CE0FF22900B18E0FFEF7011900B11E0FFEF7003126F52900B187401F0125BC0221272AB900A0FEFF0906499E0FFEF4410FFE5
:40710000EFF0900A0FE0FF12718C221272AB900A0FEFF0906598E0FFEF4410FFEFF0900A0FE0FF12718C22C2089044CB7420F0906578E0FFEF54FDFFEFF09044C37420F048
:4071400022C2099044CB7420F0906578E0FFEF54FEFFEFF09044C37420F022EC4D6011ED60010C8B938A838982E4F0A3DDFCDCFA75930022900A60EFF0900A60E0FFEF70BC
:407180000A900A60E0FF900A60EFF022EF54016004D2AF8002C2AFEF5402FF9044F4E054FD4FF0229044C87420F09044D87420F090647FE0FFEF54FEFFEFF0229043A2E0FF
:4071C000FFEF4408FFEFF09043B2E0FFEF4408FFEFF0229043A2E0FFEF4404FFEFF09043B2E0FFEF4404FFEFF022900A1CEFF0900A1CE0FFEFC43354E0FF904482EFF0223A
:40720000900A1CEFF0900A1CE0FFEFC43354E0FF904480EFF022900A1CEFF0900A1CE0FFEFC43354E0FF904481EFF022900A1CEFF0900A1CE0FFEFC43354E0FF904483EF94
